{
  "transactions": [
    {
      "hash": "0xb7b7a3c81ed26781be911d2dd4522b86309905e4e2868b6ee735c619c8cd68f9",
      "transactionType": "CALL",
      "contractName": null,
      "contractAddress": "0x1abeb3ac46d9681a6cca2534bf8be8d2c07da7b3",
      "function": "addBeneficiary(bytes32,address)",
      "arguments": [
        "0x656e67696e656572696e67000000000000000000000000000000000000000000",
        "0x8a7E77cB7d380AE79C2aC8c9928Ecfe06eE840AB"
      ],
      "transaction": {
        "from": "0x6a3c5627e016dbb9a82235b6ba21d4642f5d296c",
        "to": "0x1abeb3ac46d9681a6cca2534bf8be8d2c07da7b3",
        "gas": "0xfccf",
        "value": "0x0",
        "input": "0x10bd0498656e67696e656572696e670000000000000000000000000000000000000000000000000000000000000000008a7e77cb7d380ae79c2ac8c9928ecfe06ee840ab",
        "nonce": "0x5",
        "chainId": "0x4cef52"
      },
      "additionalContracts": [],
      "isFixedGasLimit": false
    },
    {
      "hash": "0x7a45445cb5e47102104a5142725fa2626462067d16b95da7caad7b69f812c860",
      "transactionType": "CALL",
      "contractName": null,
      "contractAddress": "0x1abeb3ac46d9681a6cca2534bf8be8d2c07da7b3",
      "function": "addBeneficiary(bytes32,address)",
      "arguments": [
        "0x656e67696e656572696e67000000000000000000000000000000000000000000",
        "0xe88F1F5B506d4E0122869C888FcB481FCF2476ce"
      ],
      "transaction": {
        "from": "0x6a3c5627e016dbb9a82235b6ba21d4642f5d296c",
        "to": "0x1abeb3ac46d9681a6cca2534bf8be8d2c07da7b3",
        "gas": "0xfccf",
        "value": "0x0",
        "input": "0x10bd0498656e67696e656572696e67000000000000000000000000000000000000000000000000000000000000000000e88f1f5b506d4e0122869c888fcb481fcf2476ce",
        "nonce": "0x6",
        "chainId": "0x4cef52"
      },
      "additionalContracts": [],
      "isFixedGasLimit": false
    },
    {
      "hash": "0x7e34c7bf1670c313abc628452c5eabd6d77ff75cede592d7757b44af7317c262",
      "transactionType": "CALL",
      "contractName": null,
      "contractAddress": "0x1abeb3ac46d9681a6cca2534bf8be8d2c07da7b3",
      "function": "addBeneficiary(bytes32,address)",
      "arguments": [
        "0x656e67696e656572696e67000000000000000000000000000000000000000000",
        "0x5e2787391ecA7099E3eB30DEc7679f1C39D24aC8"
      ],
      "transaction": {
        "from": "0x6a3c5627e016dbb9a82235b6ba21d4642f5d296c",
        "to": "0x1abeb3ac46d9681a6cca2534bf8be8d2c07da7b3",
        "gas": "0xfccf",
        "value": "0x0",
        "input": "0x10bd0498656e67696e656572696e670000000000000000000000000000000000000000000000000000000000000000005e2787391eca7099e3eb30dec7679f1c39d24ac8",
        "nonce": "0x7",
        "chainId": "0x4cef52"
      },
      "additionalContracts": [],
      "isFixedGasLimit": false
    },
    {
      "hash": "0x643a0480ee144d815f92dcfee2316031e7ed94862055c76be1eb75aea50758a1",
      "transactionType": "CALL",
      "contractName": null,
      "contractAddress": "0x1abeb3ac46d9681a6cca2534bf8be8d2c07da7b3",
      "function": "addBeneficiary(bytes32,address)",
      "arguments": [
        "0x6d61726b6574696e670000000000000000000000000000000000000000000000",
        "0x8a7E77cB7d380AE79C2aC8c9928Ecfe06eE840AB"
      ],
      "transaction": {
        "from": "0x6a3c5627e016dbb9a82235b6ba21d4642f5d296c",
        "to": "0x1abeb3ac46d9681a6cca2534bf8be8d2c07da7b3",
        "gas": "0xfcae",
        "value": "0x0",
        "input": "0x10bd04986d61726b6574696e6700000000000000000000000000000000000000000000000000000000000000000000008a7e77cb7d380ae79c2ac8c9928ecfe06ee840ab",
        "nonce": "0x8",
        "chainId": "0x4cef52"
      },
      "additionalContracts": [],
      "isFixedGasLimit": false
    },
    {
      "hash": "0x184cc9f1028daa6a1afb342f8e0524752da3c52ce44d244d0f6735a9620f9a38",
      "transactionType": "CALL",
      "contractName": null,
      "contractAddress": "0x1abeb3ac46d9681a6cca2534bf8be8d2c07da7b3",
      "function": "addBeneficiary(bytes32,address)",
      "arguments": [
        "0x6d61726b6574696e670000000000000000000000000000000000000000000000",
        "0xe88F1F5B506d4E0122869C888FcB481FCF2476ce"
      ],
      "transaction": {
        "from": "0x6a3c5627e016dbb9a82235b6ba21d4642f5d296c",
        "to": "0x1abeb3ac46d9681a6cca2534bf8be8d2c07da7b3",
        "gas": "0xfcae",
        "value": "0x0",
        "input": "0x10bd04986d61726b6574696e670000000000000000000000000000000000000000000000000000000000000000000000e88f1f5b506d4e0122869c888fcb481fcf2476ce",
        "nonce": "0x9",
        "chainId": "0x4cef52"
      },
      "additionalContracts": [],
      "isFixedGasLimit": false
    },
    {
      "hash": "0x9ef13f82deba8eb481e2786186febe72219b0e5a15a0e54991dd277d31cb13ce",
      "transactionType": "CALL",
      "contractName": null,
      "contractAddress": "0x1abeb3ac46d9681a6cca2534bf8be8d2c07da7b3",
      "function": "addBeneficiary(bytes32,address)",
      "arguments": [
        "0x6d61726b6574696e670000000000000000000000000000000000000000000000",
        "0x5e2787391ecA7099E3eB30DEc7679f1C39D24aC8"
      ],
      "transaction": {
        "from": "0x6a3c5627e016dbb9a82235b6ba21d4642f5d296c",
        "to": "0x1abeb3ac46d9681a6cca2534bf8be8d2c07da7b3",
        "gas": "0xfcae",
        "value": "0x0",
        "input": "0x10bd04986d61726b6574696e6700000000000000000000000000000000000000000000000000000000000000000000005e2787391eca7099e3eb30dec7679f1c39d24ac8",
        "nonce": "0xa",
        "chainId": "0x4cef52"
      },
      "additionalContracts": [],
      "isFixedGasLimit": false
    },
    {
      "hash": "0x391a4364047047fae3390628c62cf6ed139c6685670608f0fcc43069387c645f",
      "transactionType": "CALL",
      "contractName": null,
      "contractAddress": "0x1abeb3ac46d9681a6cca2534bf8be8d2c07da7b3",
      "function": "addBeneficiary(bytes32,address)",
      "arguments": [
        "0x6f7065726174696f6e7300000000000000000000000000000000000000000000",
        "0x8a7E77cB7d380AE79C2aC8c9928Ecfe06eE840AB"
      ],
      "transaction": {
        "from": "0x6a3c5627e016dbb9a82235b6ba21d4642f5d296c",
        "to": "0x1abeb3ac46d9681a6cca2534bf8be8d2c07da7b3",
        "gas": "0xfcbe",
        "value": "0x0",
        "input": "0x10bd04986f7065726174696f6e73000000000000000000000000000000000000000000000000000000000000000000008a7e77cb7d380ae79c2ac8c9928ecfe06ee840ab",
        "nonce": "0xb",
        "chainId": "0x4cef52"
      },
      "additionalContracts": [],
      "isFixedGasLimit": false
    },
    {
      "hash": "0x9e443ee29c0a6df6facb1a9df7577fcd5414e3e852a17c0ca95606f25df06581",
      "transactionType": "CALL",
      "contractName": null,
      "contractAddress": "0x1abeb3ac46d9681a6cca2534bf8be8d2c07da7b3",
      "function": "addBeneficiary(bytes32,address)",
      "arguments": [
        "0x6f7065726174696f6e7300000000000000000000000000000000000000000000",
        "0xe88F1F5B506d4E0122869C888FcB481FCF2476ce"
      ],
      "transaction": {
        "from": "0x6a3c5627e016dbb9a82235b6ba21d4642f5d296c",
        "to": "0x1abeb3ac46d9681a6cca2534bf8be8d2c07da7b3",
        "gas": "0xfcbe",
        "value": "0x0",
        "input": "0x10bd04986f7065726174696f6e7300000000000000000000000000000000000000000000000000000000000000000000e88f1f5b506d4e0122869c888fcb481fcf2476ce",
        "nonce": "0xc",
        "chainId": "0x4cef52"
      },
      "additionalContracts": [],
      "isFixedGasLimit": false
    },
    {
      "hash": "0x6c3f1c85bc5b0c04984ca47ba0d9d139b2fcb9b830fa2842756e344971c6c468",
      "transactionType": "CALL",
      "contractName": null,
      "contractAddress": "0x1abeb3ac46d9681a6cca2534bf8be8d2c07da7b3",
      "function": "addBeneficiary(bytes32,address)",
      "arguments": [
        "0x6f7065726174696f6e7300000000000000000000000000000000000000000000",
        "0x5e2787391ecA7099E3eB30DEc7679f1C39D24aC8"
      ],
      "transaction": {
        "from": "0x6a3c5627e016dbb9a82235b6ba21d4642f5d296c",
        "to": "0x1abeb3ac46d9681a6cca2534bf8be8d2c07da7b3",
        "gas": "0xfcbe",
        "value": "0x0",
        "input": "0x10bd04986f7065726174696f6e73000000000000000000000000000000000000000000000000000000000000000000005e2787391eca7099e3eb30dec7679f1c39d24ac8",
        "nonce": "0xd",
        "chainId": "0x4cef52"
      },
      "additionalContracts": [],
      "isFixedGasLimit": false
    }
  ],
  "receipts": [
    {
      "status": "0x1",
      "cumulativeGasUsed": "0x2e6e2",
      "logs": [],
      "logsBloom": "0x00000000000000000000000000000000000000000000000000000000000000000000000000000000000000000000000000000000000000000000000000000000000000000000000000000000000000000000000000000000000000000000000000000000000000000000000000000000000000000000000000000000000000000000000000000000000000000000000000000000000000000000000000000000000000000000000000000000000000000000000000000000000000000000000000000000000000000000000000000000000000000000000000000000000000000000000000000000000000000000000000000000000000000000000000000000",
      "type": "0x0",
      "transactionHash": "0xb7b7a3c81ed26781be911d2dd4522b86309905e4e2868b6ee735c619c8cd68f9",
      "transactionIndex": "0x1",
      "blockHash": "0x93e10f289a19d5547addd73fecaeee06e8e96fd9b5054d55a3f7695ab3ee300f",
      "blockNumber": "0xadac43",
      "gasUsed": "0xb708",
      "effectiveGasPrice": "0x258844cc00",
      "from": "0x6a3c5627e016dbb9a82235b6ba21d4642f5d296c",
      "to": "0x1abeb3ac46d9681a6cca2534bf8be8d2c07da7b3",
      "contractAddress": null
    },
    {
      "status": "0x1",
      "cumulativeGasUsed": "0x39dea",
      "logs": [],
      "logsBloom": "0x00000000000000000000000000000000000000000000000000000000000000000000000000000000000000000000000000000000000000000000000000000000000000000000000000000000000000000000000000000000000000000000000000000000000000000000000000000000000000000000000000000000000000000000000000000000000000000000000000000000000000000000000000000000000000000000000000000000000000000000000000000000000000000000000000000000000000000000000000000000000000000000000000000000000000000000000000000000000000000000000000000000000000000000000000000000",
      "type": "0x0",
      "transactionHash": "0x7a45445cb5e47102104a5142725fa2626462067d16b95da7caad7b69f812c860",
      "transactionIndex": "0x2",
      "blockHash": "0x93e10f289a19d5547addd73fecaeee06e8e96fd9b5054d55a3f7695ab3ee300f",
      "blockNumber": "0xadac43",
      "gasUsed": "0xb708",
      "effectiveGasPrice": "0x258844cc00",
      "from": "0x6a3c5627e016dbb9a82235b6ba21d4642f5d296c",
      "to": "0x1abeb3ac46d9681a6cca2534bf8be8d2c07da7b3",
      "contractAddress": null
    },
    {
      "status": "0x1",
      "cumulativeGasUsed": "0x454f2",
      "logs": [],
      "logsBloom": "0x00000000000000000000000000000000000000000000000000000000000000000000000000000000000000000000000000000000000000000000000000000000000000000000000000000000000000000000000000000000000000000000000000000000000000000000000000000000000000000000000000000000000000000000000000000000000000000000000000000000000000000000000000000000000000000000000000000000000000000000000000000000000000000000000000000000000000000000000000000000000000000000000000000000000000000000000000000000000000000000000000000000000000000000000000000000",
      "type": "0x0",
      "transactionHash": "0x7e34c7bf1670c313abc628452c5eabd6d77ff75cede592d7757b44af7317c262",
      "transactionIndex": "0x3",
      "blockHash": "0x93e10f289a19d5547addd73fecaeee06e8e96fd9b5054d55a3f7695ab3ee300f",
      "blockNumber": "0xadac43",
      "gasUsed": "0xb708",
      "effectiveGasPrice": "0x258844cc00",
      "from": "0x6a3c5627e016dbb9a82235b6ba21d4642f5d296c",
      "to": "0x1abeb3ac46d9681a6cca2534bf8be8d2c07da7b3",
      "contractAddress": null
    },
    {
      "status": "0x1",
      "cumulativeGasUsed": "0x50be2",
      "logs": [],
      "logsBloom": "0x00000000000000000000000000000000000000000000000000000000000000000000000000000000000000000000000000000000000000000000000000000000000000000000000000000000000000000000000000000000000000000000000000000000000000000000000000000000000000000000000000000000000000000000000000000000000000000000000000000000000000000000000000000000000000000000000000000000000000000000000000000000000000000000000000000000000000000000000000000000000000000000000000000000000000000000000000000000000000000000000000000000000000000000000000000000",
      "type": "0x0",
      "transactionHash": "0x643a0480ee144d815f92dcfee2316031e7ed94862055c76be1eb75aea50758a1",
      "transactionIndex": "0x4",
      "blockHash": "0x93e10f289a19d5547addd73fecaeee06e8e96fd9b5054d55a3f7695ab3ee300f",
      "blockNumber": "0xadac43",
      "gasUsed": "0xb6f0",
      "effectiveGasPrice": "0x258844cc00",
      "from": "0x6a3c5627e016dbb9a82235b6ba21d4642f5d296c",
      "to": "0x1abeb3ac46d9681a6cca2534bf8be8d2c07da7b3",
      "contractAddress": null
    },
    {
      "status": "0x1",
      "cumulativeGasUsed": "0x5c2d2",
      "logs": [],
      "logsBloom": "0x00000000000000000000000000000000000000000000000000000000000000000000000000000000000000000000000000000000000000000000000000000000000000000000000000000000000000000000000000000000000000000000000000000000000000000000000000000000000000000000000000000000000000000000000000000000000000000000000000000000000000000000000000000000000000000000000000000000000000000000000000000000000000000000000000000000000000000000000000000000000000000000000000000000000000000000000000000000000000000000000000000000000000000000000000000000",
      "type": "0x0",
      "transactionHash": "0x184cc9f1028daa6a1afb342f8e0524752da3c52ce44d244d0f6735a9620f9a38",
      "transactionIndex": "0x5",
      "blockHash": "0x93e10f289a19d5547addd73fecaeee06e8e96fd9b5054d55a3f7695ab3ee300f",
      "blockNumber": "0xadac43",
      "gasUsed": "0xb6f0",
      "effectiveGasPrice": "0x258844cc00",
      "from": "0x6a3c5627e016dbb9a82235b6ba21d4642f5d296c",
      "to": "0x1abeb3ac46d9681a6cca2534bf8be8d2c07da7b3",
      "contractAddress": null
    },
    {
      "status": "0x1",
      "cumulativeGasUsed": "0x679c2",
      "logs": [],
      "logsBloom": "0x00000000000000000000000000000000000000000000000000000000000000000000000000000000000000000000000000000000000000000000000000000000000000000000000000000000000000000000000000000000000000000000000000000000000000000000000000000000000000000000000000000000000000000000000000000000000000000000000000000000000000000000000000000000000000000000000000000000000000000000000000000000000000000000000000000000000000000000000000000000000000000000000000000000000000000000000000000000000000000000000000000000000000000000000000000000",
      "type": "0x0",
      "transactionHash": "0x9ef13f82deba8eb481e2786186febe72219b0e5a15a0e54991dd277d31cb13ce",
      "transactionIndex": "0x6",
      "blockHash": "0x93e10f289a19d5547addd73fecaeee06e8e96fd9b5054d55a3f7695ab3ee300f",
      "blockNumber": "0xadac43",
      "gasUsed": "0xb6f0",
      "effectiveGasPrice": "0x258844cc00",
      "from": "0x6a3c5627e016dbb9a82235b6ba21d4642f5d296c",
      "to": "0x1abeb3ac46d9681a6cca2534bf8be8d2c07da7b3",
      "contractAddress": null
    },
    {
      "status": "0x1",
      "cumulativeGasUsed": "0x39e68",
      "logs": [],
      "logsBloom": "0x00000000000000000000000000000000000000000000000000000000000000000000000000000000000000000000000000000000000000000000000000000000000000000000000000000000000000000000000000000000000000000000000000000000000000000000000000000000000000000000000000000000000000000000000000000000000000000000000000000000000000000000000000000000000000000000000000000000000000000000000000000000000000000000000000000000000000000000000000000000000000000000000000000000000000000000000000000000000000000000000000000000000000000000000000000000",
      "type": "0x0",
      "transactionHash": "0x391a4364047047fae3390628c62cf6ed139c6685670608f0fcc43069387c645f",
      "transactionIndex": "0x1",
      "blockHash": "0xa40a2be768de5edd3b13b7e6411990463bfe992db62b5fffa5c90ebe3884dbdf",
      "blockNumber": "0xadac45",
      "gasUsed": "0xb6fc",
      "effectiveGasPrice": "0x258844cc00",
      "from": "0x6a3c5627e016dbb9a82235b6ba21d4642f5d296c",
      "to": "0x1abeb3ac46d9681a6cca2534bf8be8d2c07da7b3",
      "contractAddress": null
    },
    {
      "status": "0x1",
      "cumulativeGasUsed": "0x45564",
      "logs": [],
      "logsBloom": "0x00000000000000000000000000000000000000000000000000000000000000000000000000000000000000000000000000000000000000000000000000000000000000000000000000000000000000000000000000000000000000000000000000000000000000000000000000000000000000000000000000000000000000000000000000000000000000000000000000000000000000000000000000000000000000000000000000000000000000000000000000000000000000000000000000000000000000000000000000000000000000000000000000000000000000000000000000000000000000000000000000000000000000000000000000000000",
      "type": "0x0",
      "transactionHash": "0x9e443ee29c0a6df6facb1a9df7577fcd5414e3e852a17c0ca95606f25df06581",
      "transactionIndex": "0x2",
      "blockHash": "0xa40a2be768de5edd3b13b7e6411990463bfe992db62b5fffa5c90ebe3884dbdf",
      "blockNumber": "0xadac45",
      "gasUsed": "0xb6fc",
      "effectiveGasPrice": "0x258844cc00",
      "from": "0x6a3c5627e016dbb9a82235b6ba21d4642f5d296c",
      "to": "0x1abeb3ac46d9681a6cca2534bf8be8d2c07da7b3",
      "contractAddress": null
    },
    {
      "status": "0x1",
      "cumulativeGasUsed": "0x50c60",
      "logs": [],
      "logsBloom": "0x00000000000000000000000000000000000000000000000000000000000000000000000000000000000000000000000000000000000000000000000000000000000000000000000000000000000000000000000000000000000000000000000000000000000000000000000000000000000000000000000000000000000000000000000000000000000000000000000000000000000000000000000000000000000000000000000000000000000000000000000000000000000000000000000000000000000000000000000000000000000000000000000000000000000000000000000000000000000000000000000000000000000000000000000000000000",
      "type": "0x0",
      "transactionHash": "0x6c3f1c85bc5b0c04984ca47ba0d9d139b2fcb9b830fa2842756e344971c6c468",
      "transactionIndex": "0x3",
      "blockHash": "0xa40a2be768de5edd3b13b7e6411990463bfe992db62b5fffa5c90ebe3884dbdf",
      "blockNumber": "0xadac45",
      "gasUsed": "0xb6fc",
      "effectiveGasPrice": "0x258844cc00",
      "from": "0x6a3c5627e016dbb9a82235b6ba21d4642f5d296c",
      "to": "0x1abeb3ac46d9681a6cca2534bf8be8d2c07da7b3",
      "contractAddress": null
    }
  ],
  "libraries": [],
  "pending": [],
  "returns": {},
  "timestamp": 1763254803139,
  "chain": 5042002,
  "commit": "c3a476d"
}