{
  "transactions": [
    {
      "hash": "0xfecb7d04b2e359db71a20b37e3347ad3bd3096af95cab0a0ac6e18b1163bd34a",
      "transactionType": "CALL",
      "contractName": null,
      "contractAddress": "0x347f32bfaa1e3bf6353fd5e3e936dc4b71ff75b3",
      "function": "createPot(bytes32,uint256,address[],uint256)",
      "arguments": [
        "0x656e67696e656572696e67000000000000000000000000000000000000000000",
        "3000000",
        "[0x8a7E77cB7d380AE79C2aC8c9928Ecfe06eE840AB]",
        "500000"
      ],
      "transaction": {
        "from": "0x8a7e77cb7d380ae79c2ac8c9928ecfe06ee840ab",
        "to": "0x347f32bfaa1e3bf6353fd5e3e936dc4b71ff75b3",
        "gas": "0x29cb2",
        "value": "0x0",
        "input": "0xb6431858656e67696e656572696e6700000000000000000000000000000000000000000000000000000000000000000000000000000000000000000000000000002dc6c00000000000000000000000000000000000000000000000000000000000000080000000000000000000000000000000000000000000000000000000000007a12000000000000000000000000000000000000000000000000000000000000000010000000000000000000000008a7e77cb7d380ae79c2ac8c9928ecfe06ee840ab",
        "nonce": "0x40",
        "chainId": "0x4cef52"
      },
      "additionalContracts": [],
      "isFixedGasLimit": false
    },
    {
      "hash": "0xb7d27c7e2fefef528e44666497582d0b075e4a21e936f0829e813d09ac76661e",
      "transactionType": "CALL",
      "contractName": null,
      "contractAddress": "0x347f32bfaa1e3bf6353fd5e3e936dc4b71ff75b3",
      "function": "createPot(bytes32,uint256,address[],uint256)",
      "arguments": [
        "0x6d61726b6574696e670000000000000000000000000000000000000000000000",
        "5000000",
        "[0x8a7E77cB7d380AE79C2aC8c9928Ecfe06eE840AB]",
        "500000"
      ],
      "transaction": {
        "from": "0x8a7e77cb7d380ae79c2ac8c9928ecfe06ee840ab",
        "to": "0x347f32bfaa1e3bf6353fd5e3e936dc4b71ff75b3",
        "gas": "0x29c8f",
        "value": "0x0",
        "input": "0xb64318586d61726b6574696e67000000000000000000000000000000000000000000000000000000000000000000000000000000000000000000000000000000004c4b400000000000000000000000000000000000000000000000000000000000000080000000000000000000000000000000000000000000000000000000000007a12000000000000000000000000000000000000000000000000000000000000000010000000000000000000000008a7e77cb7d380ae79c2ac8c9928ecfe06ee840ab",
        "nonce": "0x41",
        "chainId": "0x4cef52"
      },
      "additionalContracts": [],
      "isFixedGasLimit": false
    },
    {
      "hash": "0xf79112eb998848dd28c0d53f03992ecff3bcc2401b09030b5f12bac7c0ddb331",
      "transactionType": "CALL",
      "contractName": null,
      "contractAddress": "0x347f32bfaa1e3bf6353fd5e3e936dc4b71ff75b3",
      "function": "createPot(bytes32,uint256,address[],uint256)",
      "arguments": [
        "0x6f7065726174696f6e7300000000000000000000000000000000000000000000",
        "2000000",
        "[0x8a7E77cB7d380AE79C2aC8c9928Ecfe06eE840AB]",
        "500000"
      ],
      "transaction": {
        "from": "0x8a7e77cb7d380ae79c2ac8c9928ecfe06ee840ab",
        "to": "0x347f32bfaa1e3bf6353fd5e3e936dc4b71ff75b3",
        "gas": "0x2777a",
        "value": "0x0",
        "input": "0xb64318586f7065726174696f6e730000000000000000000000000000000000000000000000000000000000000000000000000000000000000000000000000000001e84800000000000000000000000000000000000000000000000000000000000000080000000000000000000000000000000000000000000000000000000000007a12000000000000000000000000000000000000000000000000000000000000000010000000000000000000000008a7e77cb7d380ae79c2ac8c9928ecfe06ee840ab",
        "nonce": "0x42",
        "chainId": "0x4cef52"
      },
      "additionalContracts": [],
      "isFixedGasLimit": false
    },
    {
      "hash": "0xd214e633e404f4e0f223ba999e2ec17a64b00e71a0a5be7c3161eae572ef345c",
      "transactionType": "CALL",
      "contractName": null,
      "contractAddress": "0x347f32bfaa1e3bf6353fd5e3e936dc4b71ff75b3",
      "function": "addBeneficiary(bytes32,address)",
      "arguments": [
        "0x656e67696e656572696e67000000000000000000000000000000000000000000",
        "0x8a7E77cB7d380AE79C2aC8c9928Ecfe06eE840AB"
      ],
      "transaction": {
        "from": "0x8a7e77cb7d380ae79c2ac8c9928ecfe06ee840ab",
        "to": "0x347f32bfaa1e3bf6353fd5e3e936dc4b71ff75b3",
        "gas": "0xfcf1",
        "value": "0x0",
        "input": "0x10bd0498656e67696e656572696e670000000000000000000000000000000000000000000000000000000000000000008a7e77cb7d380ae79c2ac8c9928ecfe06ee840ab",
        "nonce": "0x43",
        "chainId": "0x4cef52"
      },
      "additionalContracts": [],
      "isFixedGasLimit": false
    },
    {
      "hash": "0x847f7b996cc82309866b1342c9e69299aaefe5ce4fde77dd997c98dabf41e930",
      "transactionType": "CALL",
      "contractName": null,
      "contractAddress": "0x347f32bfaa1e3bf6353fd5e3e936dc4b71ff75b3",
      "function": "addBeneficiary(bytes32,address)",
      "arguments": [
        "0x656e67696e656572696e67000000000000000000000000000000000000000000",
        "0xe88F1F5B506d4E0122869C888FcB481FCF2476ce"
      ],
      "transaction": {
        "from": "0x8a7e77cb7d380ae79c2ac8c9928ecfe06ee840ab",
        "to": "0x347f32bfaa1e3bf6353fd5e3e936dc4b71ff75b3",
        "gas": "0xfcf1",
        "value": "0x0",
        "input": "0x10bd0498656e67696e656572696e67000000000000000000000000000000000000000000000000000000000000000000e88f1f5b506d4e0122869c888fcb481fcf2476ce",
        "nonce": "0x44",
        "chainId": "0x4cef52"
      },
      "additionalContracts": [],
      "isFixedGasLimit": false
    },
    {
      "hash": "0x4bbe27cdbc45685be094f8e3dcb9d237cd08361c9c60aa834ef09666d1d4b4a2",
      "transactionType": "CALL",
      "contractName": null,
      "contractAddress": "0x347f32bfaa1e3bf6353fd5e3e936dc4b71ff75b3",
      "function": "addBeneficiary(bytes32,address)",
      "arguments": [
        "0x656e67696e656572696e67000000000000000000000000000000000000000000",
        "0x5e2787391ecA7099E3eB30DEc7679f1C39D24aC8"
      ],
      "transaction": {
        "from": "0x8a7e77cb7d380ae79c2ac8c9928ecfe06ee840ab",
        "to": "0x347f32bfaa1e3bf6353fd5e3e936dc4b71ff75b3",
        "gas": "0xfcf1",
        "value": "0x0",
        "input": "0x10bd0498656e67696e656572696e670000000000000000000000000000000000000000000000000000000000000000005e2787391eca7099e3eb30dec7679f1c39d24ac8",
        "nonce": "0x45",
        "chainId": "0x4cef52"
      },
      "additionalContracts": [],
      "isFixedGasLimit": false
    },
    {
      "hash": "0xda67ccf526ce8a8cf8baf687723797a998abcd4c6660fcc941d9e9d54506f486",
      "transactionType": "CALL",
      "contractName": null,
      "contractAddress": "0x347f32bfaa1e3bf6353fd5e3e936dc4b71ff75b3",
      "function": "addBeneficiary(bytes32,address)",
      "arguments": [
        "0x6d61726b6574696e670000000000000000000000000000000000000000000000",
        "0x8a7E77cB7d380AE79C2aC8c9928Ecfe06eE840AB"
      ],
      "transaction": {
        "from": "0x8a7e77cb7d380ae79c2ac8c9928ecfe06ee840ab",
        "to": "0x347f32bfaa1e3bf6353fd5e3e936dc4b71ff75b3",
        "gas": "0xfccf",
        "value": "0x0",
        "input": "0x10bd04986d61726b6574696e6700000000000000000000000000000000000000000000000000000000000000000000008a7e77cb7d380ae79c2ac8c9928ecfe06ee840ab",
        "nonce": "0x46",
        "chainId": "0x4cef52"
      },
      "additionalContracts": [],
      "isFixedGasLimit": false
    },
    {
      "hash": "0xcaacd051e568f0be57ccd64723e54b49f88ccd07edaff5b80f69af08a15196a2",
      "transactionType": "CALL",
      "contractName": null,
      "contractAddress": "0x347f32bfaa1e3bf6353fd5e3e936dc4b71ff75b3",
      "function": "addBeneficiary(bytes32,address)",
      "arguments": [
        "0x6d61726b6574696e670000000000000000000000000000000000000000000000",
        "0xe88F1F5B506d4E0122869C888FcB481FCF2476ce"
      ],
      "transaction": {
        "from": "0x8a7e77cb7d380ae79c2ac8c9928ecfe06ee840ab",
        "to": "0x347f32bfaa1e3bf6353fd5e3e936dc4b71ff75b3",
        "gas": "0xfccf",
        "value": "0x0",
        "input": "0x10bd04986d61726b6574696e670000000000000000000000000000000000000000000000000000000000000000000000e88f1f5b506d4e0122869c888fcb481fcf2476ce",
        "nonce": "0x47",
        "chainId": "0x4cef52"
      },
      "additionalContracts": [],
      "isFixedGasLimit": false
    },
    {
      "hash": "0xaee10a3d0a9c273767572045a6f409bc4b6fc3b79e12c721de806448379fc90d",
      "transactionType": "CALL",
      "contractName": null,
      "contractAddress": "0x347f32bfaa1e3bf6353fd5e3e936dc4b71ff75b3",
      "function": "addBeneficiary(bytes32,address)",
      "arguments": [
        "0x6d61726b6574696e670000000000000000000000000000000000000000000000",
        "0x5e2787391ecA7099E3eB30DEc7679f1C39D24aC8"
      ],
      "transaction": {
        "from": "0x8a7e77cb7d380ae79c2ac8c9928ecfe06ee840ab",
        "to": "0x347f32bfaa1e3bf6353fd5e3e936dc4b71ff75b3",
        "gas": "0xfccf",
        "value": "0x0",
        "input": "0x10bd04986d61726b6574696e6700000000000000000000000000000000000000000000000000000000000000000000005e2787391eca7099e3eb30dec7679f1c39d24ac8",
        "nonce": "0x48",
        "chainId": "0x4cef52"
      },
      "additionalContracts": [],
      "isFixedGasLimit": false
    },
    {
      "hash": "0x5a86fe64aab5e59601f59214108b29ac05a0984542b0e797e9c0bd1f3cc543c1",
      "transactionType": "CALL",
      "contractName": null,
      "contractAddress": "0x347f32bfaa1e3bf6353fd5e3e936dc4b71ff75b3",
      "function": "addBeneficiary(bytes32,address)",
      "arguments": [
        "0x6f7065726174696f6e7300000000000000000000000000000000000000000000",
        "0x8a7E77cB7d380AE79C2aC8c9928Ecfe06eE840AB"
      ],
      "transaction": {
        "from": "0x8a7e77cb7d380ae79c2ac8c9928ecfe06ee840ab",
        "to": "0x347f32bfaa1e3bf6353fd5e3e936dc4b71ff75b3",
        "gas": "0xfce0",
        "value": "0x0",
        "input": "0x10bd04986f7065726174696f6e73000000000000000000000000000000000000000000000000000000000000000000008a7e77cb7d380ae79c2ac8c9928ecfe06ee840ab",
        "nonce": "0x49",
        "chainId": "0x4cef52"
      },
      "additionalContracts": [],
      "isFixedGasLimit": false
    },
    {
      "hash": "0x6ab7879db6041d8de60d50f4f838f2a8c69496406c75ba3cb4144de2d424d414",
      "transactionType": "CALL",
      "contractName": null,
      "contractAddress": "0x347f32bfaa1e3bf6353fd5e3e936dc4b71ff75b3",
      "function": "addBeneficiary(bytes32,address)",
      "arguments": [
        "0x6f7065726174696f6e7300000000000000000000000000000000000000000000",
        "0xe88F1F5B506d4E0122869C888FcB481FCF2476ce"
      ],
      "transaction": {
        "from": "0x8a7e77cb7d380ae79c2ac8c9928ecfe06ee840ab",
        "to": "0x347f32bfaa1e3bf6353fd5e3e936dc4b71ff75b3",
        "gas": "0xfce0",
        "value": "0x0",
        "input": "0x10bd04986f7065726174696f6e7300000000000000000000000000000000000000000000000000000000000000000000e88f1f5b506d4e0122869c888fcb481fcf2476ce",
        "nonce": "0x4a",
        "chainId": "0x4cef52"
      },
      "additionalContracts": [],
      "isFixedGasLimit": false
    },
    {
      "hash": "0xf899b9f5f9e116c2525a95d089e05852fc2a42bc4ed7ccab3941b98e9b032f0c",
      "transactionType": "CALL",
      "contractName": null,
      "contractAddress": "0x347f32bfaa1e3bf6353fd5e3e936dc4b71ff75b3",
      "function": "addBeneficiary(bytes32,address)",
      "arguments": [
        "0x6f7065726174696f6e7300000000000000000000000000000000000000000000",
        "0x5e2787391ecA7099E3eB30DEc7679f1C39D24aC8"
      ],
      "transaction": {
        "from": "0x8a7e77cb7d380ae79c2ac8c9928ecfe06ee840ab",
        "to": "0x347f32bfaa1e3bf6353fd5e3e936dc4b71ff75b3",
        "gas": "0xfce0",
        "value": "0x0",
        "input": "0x10bd04986f7065726174696f6e73000000000000000000000000000000000000000000000000000000000000000000005e2787391eca7099e3eb30dec7679f1c39d24ac8",
        "nonce": "0x4b",
        "chainId": "0x4cef52"
      },
      "additionalContracts": [],
      "isFixedGasLimit": false
    }
  ],
  "receipts": [
    {
      "status": "0x1",
      "cumulativeGasUsed": "0x1acee5",
      "logs": [],
      "logsBloom": "0x00000000000000000000000000000000000000000000000000000000000000000000000000000000000000000000000000000000000000000000000000000000000000000000000000000000000000000000000000000000000000000000000000000000000000000000000000000000000000000000000000000000000000000000000000000000000000000000000000000000000000000000000000000000000000000000000000000000000000000000000000000000000000000000000000000000000000000000000000000000000000000000000000000000000000000000000000000000000000000000000000000000000000000000000000000000",
      "type": "0x0",
      "transactionHash": "0xfecb7d04b2e359db71a20b37e3347ad3bd3096af95cab0a0ac6e18b1163bd34a",
      "transactionIndex": "0xe",
      "blockHash": "0xc4bcf7eeb3287d845b4f93c14713ae4e5fa9628e6b7041e297bbe091abd3563a",
      "blockNumber": "0xaec176",
      "gasUsed": "0x1c93b",
      "effectiveGasPrice": "0x266ac43200",
      "from": "0x8a7e77cb7d380ae79c2ac8c9928ecfe06ee840ab",
      "to": "0x347f32bfaa1e3bf6353fd5e3e936dc4b71ff75b3",
      "contractAddress": null
    },
    {
      "status": "0x1",
      "cumulativeGasUsed": "0x1c9808",
      "logs": [],
      "logsBloom": "0x00000000000000000000000000000000000000000000000000000000000000000000000000000000000000000000000000000000000000000000000000000000000000000000000000000000000000000000000000000000000000000000000000000000000000000000000000000000000000000000000000000000000000000000000000000000000000000000000000000000000000000000000000000000000000000000000000000000000000000000000000000000000000000000000000000000000000000000000000000000000000000000000000000000000000000000000000000000000000000000000000000000000000000000000000000000",
      "type": "0x0",
      "transactionHash": "0xb7d27c7e2fefef528e44666497582d0b075e4a21e936f0829e813d09ac76661e",
      "transactionIndex": "0xf",
      "blockHash": "0xc4bcf7eeb3287d845b4f93c14713ae4e5fa9628e6b7041e297bbe091abd3563a",
      "blockNumber": "0xaec176",
      "gasUsed": "0x1c923",
      "effectiveGasPrice": "0x266ac43200",
      "from": "0x8a7e77cb7d380ae79c2ac8c9928ecfe06ee840ab",
      "to": "0x347f32bfaa1e3bf6353fd5e3e936dc4b71ff75b3",
      "contractAddress": null
    },
    {
      "status": "0x1",
      "cumulativeGasUsed": "0x1e6137",
      "logs": [],
      "logsBloom": "0x00000000000000000000000000000000000000000000000000000000000000000000000000000000000000000000000000000000000000000000000000000000000000000000000000000000000000000000000000000000000000000000000000000000000000000000000000000000000000000000000000000000000000000000000000000000000000000000000000000000000000000000000000000000000000000000000000000000000000000000000000000000000000000000000000000000000000000000000000000000000000000000000000000000000000000000000000000000000000000000000000000000000000000000000000000000",
      "type": "0x0",
      "transactionHash": "0xf79112eb998848dd28c0d53f03992ecff3bcc2401b09030b5f12bac7c0ddb331",
      "transactionIndex": "0x10",
      "blockHash": "0xc4bcf7eeb3287d845b4f93c14713ae4e5fa9628e6b7041e297bbe091abd3563a",
      "blockNumber": "0xaec176",
      "gasUsed": "0x1c92f",
      "effectiveGasPrice": "0x266ac43200",
      "from": "0x8a7e77cb7d380ae79c2ac8c9928ecfe06ee840ab",
      "to": "0x347f32bfaa1e3bf6353fd5e3e936dc4b71ff75b3",
      "contractAddress": null
    },
    {
      "status": "0x1",
      "cumulativeGasUsed": "0x1f1857",
      "logs": [],
      "logsBloom": "0x00000000000000000000000000000000000000000000000000000000000000000000000000000000000000000000000000000000000000000000000000000000000000000000000000000000000000000000000000000000000000000000000000000000000000000000000000000000000000000000000000000000000000000000000000000000000000000000000000000000000000000000000000000000000000000000000000000000000000000000000000000000000000000000000000000000000000000000000000000000000000000000000000000000000000000000000000000000000000000000000000000000000000000000000000000000",
      "type": "0x0",
      "transactionHash": "0xd214e633e404f4e0f223ba999e2ec17a64b00e71a0a5be7c3161eae572ef345c",
      "transactionIndex": "0x11",
      "blockHash": "0xc4bcf7eeb3287d845b4f93c14713ae4e5fa9628e6b7041e297bbe091abd3563a",
      "blockNumber": "0xaec176",
      "gasUsed": "0xb720",
      "effectiveGasPrice": "0x266ac43200",
      "from": "0x8a7e77cb7d380ae79c2ac8c9928ecfe06ee840ab",
      "to": "0x347f32bfaa1e3bf6353fd5e3e936dc4b71ff75b3",
      "contractAddress": null
    },
    {
      "status": "0x1",
      "cumulativeGasUsed": "0x1fcf77",
      "logs": [],
      "logsBloom": "0x00000000000000000000000000000000000000000000000000000000000000000000000000000000000000000000000000000000000000000000000000000000000000000000000000000000000000000000000000000000000000000000000000000000000000000000000000000000000000000000000000000000000000000000000000000000000000000000000000000000000000000000000000000000000000000000000000000000000000000000000000000000000000000000000000000000000000000000000000000000000000000000000000000000000000000000000000000000000000000000000000000000000000000000000000000000",
      "type": "0x0",
      "transactionHash": "0x847f7b996cc82309866b1342c9e69299aaefe5ce4fde77dd997c98dabf41e930",
      "transactionIndex": "0x12",
      "blockHash": "0xc4bcf7eeb3287d845b4f93c14713ae4e5fa9628e6b7041e297bbe091abd3563a",
      "blockNumber": "0xaec176",
      "gasUsed": "0xb720",
      "effectiveGasPrice": "0x266ac43200",
      "from": "0x8a7e77cb7d380ae79c2ac8c9928ecfe06ee840ab",
      "to": "0x347f32bfaa1e3bf6353fd5e3e936dc4b71ff75b3",
      "contractAddress": null
    },
    {
      "status": "0x1",
      "cumulativeGasUsed": "0x208697",
      "logs": [],
      "logsBloom": "0x00000000000000000000000000000000000000000000000000000000000000000000000000000000000000000000000000000000000000000000000000000000000000000000000000000000000000000000000000000000000000000000000000000000000000000000000000000000000000000000000000000000000000000000000000000000000000000000000000000000000000000000000000000000000000000000000000000000000000000000000000000000000000000000000000000000000000000000000000000000000000000000000000000000000000000000000000000000000000000000000000000000000000000000000000000000",
      "type": "0x0",
      "transactionHash": "0x4bbe27cdbc45685be094f8e3dcb9d237cd08361c9c60aa834ef09666d1d4b4a2",
      "transactionIndex": "0x13",
      "blockHash": "0xc4bcf7eeb3287d845b4f93c14713ae4e5fa9628e6b7041e297bbe091abd3563a",
      "blockNumber": "0xaec176",
      "gasUsed": "0xb720",
      "effectiveGasPrice": "0x266ac43200",
      "from": "0x8a7e77cb7d380ae79c2ac8c9928ecfe06ee840ab",
      "to": "0x347f32bfaa1e3bf6353fd5e3e936dc4b71ff75b3",
      "contractAddress": null
    },
    {
      "status": "0x1",
      "cumulativeGasUsed": "0x213d9f",
      "logs": [],
      "logsBloom": "0x00000000000000000000000000000000000000000000000000000000000000000000000000000000000000000000000000000000000000000000000000000000000000000000000000000000000000000000000000000000000000000000000000000000000000000000000000000000000000000000000000000000000000000000000000000000000000000000000000000000000000000000000000000000000000000000000000000000000000000000000000000000000000000000000000000000000000000000000000000000000000000000000000000000000000000000000000000000000000000000000000000000000000000000000000000000",
      "type": "0x0",
      "transactionHash": "0xda67ccf526ce8a8cf8baf687723797a998abcd4c6660fcc941d9e9d54506f486",
      "transactionIndex": "0x14",
      "blockHash": "0xc4bcf7eeb3287d845b4f93c14713ae4e5fa9628e6b7041e297bbe091abd3563a",
      "blockNumber": "0xaec176",
      "gasUsed": "0xb708",
      "effectiveGasPrice": "0x266ac43200",
      "from": "0x8a7e77cb7d380ae79c2ac8c9928ecfe06ee840ab",
      "to": "0x347f32bfaa1e3bf6353fd5e3e936dc4b71ff75b3",
      "contractAddress": null
    },
    {
      "status": "0x1",
      "cumulativeGasUsed": "0x21f4a7",
      "logs": [],
      "logsBloom": "0x00000000000000000000000000000000000000000000000000000000000000000000000000000000000000000000000000000000000000000000000000000000000000000000000000000000000000000000000000000000000000000000000000000000000000000000000000000000000000000000000000000000000000000000000000000000000000000000000000000000000000000000000000000000000000000000000000000000000000000000000000000000000000000000000000000000000000000000000000000000000000000000000000000000000000000000000000000000000000000000000000000000000000000000000000000000",
      "type": "0x0",
      "transactionHash": "0xcaacd051e568f0be57ccd64723e54b49f88ccd07edaff5b80f69af08a15196a2",
      "transactionIndex": "0x15",
      "blockHash": "0xc4bcf7eeb3287d845b4f93c14713ae4e5fa9628e6b7041e297bbe091abd3563a",
      "blockNumber": "0xaec176",
      "gasUsed": "0xb708",
      "effectiveGasPrice": "0x266ac43200",
      "from": "0x8a7e77cb7d380ae79c2ac8c9928ecfe06ee840ab",
      "to": "0x347f32bfaa1e3bf6353fd5e3e936dc4b71ff75b3",
      "contractAddress": null
    },
    {
      "status": "0x1",
      "cumulativeGasUsed": "0x22abaf",
      "logs": [],
      "logsBloom": "0x00000000000000000000000000000000000000000000000000000000000000000000000000000000000000000000000000000000000000000000000000000000000000000000000000000000000000000000000000000000000000000000000000000000000000000000000000000000000000000000000000000000000000000000000000000000000000000000000000000000000000000000000000000000000000000000000000000000000000000000000000000000000000000000000000000000000000000000000000000000000000000000000000000000000000000000000000000000000000000000000000000000000000000000000000000000",
      "type": "0x0",
      "transactionHash": "0xaee10a3d0a9c273767572045a6f409bc4b6fc3b79e12c721de806448379fc90d",
      "transactionIndex": "0x16",
      "blockHash": "0xc4bcf7eeb3287d845b4f93c14713ae4e5fa9628e6b7041e297bbe091abd3563a",
      "blockNumber": "0xaec176",
      "gasUsed": "0xb708",
      "effectiveGasPrice": "0x266ac43200",
      "from": "0x8a7e77cb7d380ae79c2ac8c9928ecfe06ee840ab",
      "to": "0x347f32bfaa1e3bf6353fd5e3e936dc4b71ff75b3",
      "contractAddress": null
    },
    {
      "status": "0x1",
      "cumulativeGasUsed": "0x2362c3",
      "logs": [],
      "logsBloom": "0x00000000000000000000000000000000000000000000000000000000000000000000000000000000000000000000000000000000000000000000000000000000000000000000000000000000000000000000000000000000000000000000000000000000000000000000000000000000000000000000000000000000000000000000000000000000000000000000000000000000000000000000000000000000000000000000000000000000000000000000000000000000000000000000000000000000000000000000000000000000000000000000000000000000000000000000000000000000000000000000000000000000000000000000000000000000",
      "type": "0x0",
      "transactionHash": "0x5a86fe64aab5e59601f59214108b29ac05a0984542b0e797e9c0bd1f3cc543c1",
      "transactionIndex": "0x17",
      "blockHash": "0xc4bcf7eeb3287d845b4f93c14713ae4e5fa9628e6b7041e297bbe091abd3563a",
      "blockNumber": "0xaec176",
      "gasUsed": "0xb714",
      "effectiveGasPrice": "0x266ac43200",
      "from": "0x8a7e77cb7d380ae79c2ac8c9928ecfe06ee840ab",
      "to": "0x347f32bfaa1e3bf6353fd5e3e936dc4b71ff75b3",
      "contractAddress": null
    },
    {
      "status": "0x1",
      "cumulativeGasUsed": "0x2419d7",
      "logs": [],
      "logsBloom": "0x00000000000000000000000000000000000000000000000000000000000000000000000000000000000000000000000000000000000000000000000000000000000000000000000000000000000000000000000000000000000000000000000000000000000000000000000000000000000000000000000000000000000000000000000000000000000000000000000000000000000000000000000000000000000000000000000000000000000000000000000000000000000000000000000000000000000000000000000000000000000000000000000000000000000000000000000000000000000000000000000000000000000000000000000000000000",
      "type": "0x0",
      "transactionHash": "0x6ab7879db6041d8de60d50f4f838f2a8c69496406c75ba3cb4144de2d424d414",
      "transactionIndex": "0x18",
      "blockHash": "0xc4bcf7eeb3287d845b4f93c14713ae4e5fa9628e6b7041e297bbe091abd3563a",
      "blockNumber": "0xaec176",
      "gasUsed": "0xb714",
      "effectiveGasPrice": "0x266ac43200",
      "from": "0x8a7e77cb7d380ae79c2ac8c9928ecfe06ee840ab",
      "to": "0x347f32bfaa1e3bf6353fd5e3e936dc4b71ff75b3",
      "contractAddress": null
    },
    {
      "status": "0x1",
      "cumulativeGasUsed": "0x24d0eb",
      "logs": [],
      "logsBloom": "0x00000000000000000000000000000000000000000000000000000000000000000000000000000000000000000000000000000000000000000000000000000000000000000000000000000000000000000000000000000000000000000000000000000000000000000000000000000000000000000000000000000000000000000000000000000000000000000000000000000000000000000000000000000000000000000000000000000000000000000000000000000000000000000000000000000000000000000000000000000000000000000000000000000000000000000000000000000000000000000000000000000000000000000000000000000000",
      "type": "0x0",
      "transactionHash": "0xf899b9f5f9e116c2525a95d089e05852fc2a42bc4ed7ccab3941b98e9b032f0c",
      "transactionIndex": "0x19",
      "blockHash": "0xc4bcf7eeb3287d845b4f93c14713ae4e5fa9628e6b7041e297bbe091abd3563a",
      "blockNumber": "0xaec176",
      "gasUsed": "0xb714",
      "effectiveGasPrice": "0x266ac43200",
      "from": "0x8a7e77cb7d380ae79c2ac8c9928ecfe06ee840ab",
      "to": "0x347f32bfaa1e3bf6353fd5e3e936dc4b71ff75b3",
      "contractAddress": null
    }
  ],
  "libraries": [],
  "pending": [],
  "returns": {},
  "timestamp": 1763290283833,
  "chain": 5042002,
  "commit": "bf025ef"
}