{
  "transactions": [
    {
      "hash": "0x4b38a6ee114764663bb8977fc0e17eb52ae1b4ffd2a89e18619db3e154fe6417",
      "transactionType": "CALL",
      "contractName": null,
      "contractAddress": "0x1abeb3ac46d9681a6cca2534bf8be8d2c07da7b3",
      "function": "createPot(bytes32,uint256,address[],uint256)",
      "arguments": [
        "0x656e67696e656572696e67000000000000000000000000000000000000000000",
        "3000000",
        "[0x8a7E77cB7d380AE79C2aC8c9928Ecfe06eE840AB, 0xe88F1F5B506d4E0122869C888FcB481FCF2476ce]",
        "500000"
      ],
      "transaction": {
        "from": "0x6a3c5627e016dbb9a82235b6ba21d4642f5d296c",
        "to": "0x1abeb3ac46d9681a6cca2534bf8be8d2c07da7b3",
        "gas": "0x2f181",
        "value": "0x0",
        "input": "0xb6431858656e67696e656572696e6700000000000000000000000000000000000000000000000000000000000000000000000000000000000000000000000000002dc6c00000000000000000000000000000000000000000000000000000000000000080000000000000000000000000000000000000000000000000000000000007a12000000000000000000000000000000000000000000000000000000000000000020000000000000000000000008a7e77cb7d380ae79c2ac8c9928ecfe06ee840ab000000000000000000000000e88f1f5b506d4e0122869c888fcb481fcf2476ce",
        "nonce": "0x2",
        "chainId": "0x4cef52"
      },
      "additionalContracts": [],
      "isFixedGasLimit": false
    },
    {
      "hash": "0x50da462cd4bc99f3f6d87db0d697711b92595851403c517cb4fe6e44950cc81c",
      "transactionType": "CALL",
      "contractName": null,
      "contractAddress": "0x1abeb3ac46d9681a6cca2534bf8be8d2c07da7b3",
      "function": "createPot(bytes32,uint256,address[],uint256)",
      "arguments": [
        "0x6d61726b6574696e670000000000000000000000000000000000000000000000",
        "5000000",
        "[0x8a7E77cB7d380AE79C2aC8c9928Ecfe06eE840AB, 0xe88F1F5B506d4E0122869C888FcB481FCF2476ce]",
        "500000"
      ],
      "transaction": {
        "from": "0x6a3c5627e016dbb9a82235b6ba21d4642f5d296c",
        "to": "0x1abeb3ac46d9681a6cca2534bf8be8d2c07da7b3",
        "gas": "0x2f160",
        "value": "0x0",
        "input": "0xb64318586d61726b6574696e67000000000000000000000000000000000000000000000000000000000000000000000000000000000000000000000000000000004c4b400000000000000000000000000000000000000000000000000000000000000080000000000000000000000000000000000000000000000000000000000007a12000000000000000000000000000000000000000000000000000000000000000020000000000000000000000008a7e77cb7d380ae79c2ac8c9928ecfe06ee840ab000000000000000000000000e88f1f5b506d4e0122869c888fcb481fcf2476ce",
        "nonce": "0x3",
        "chainId": "0x4cef52"
      },
      "additionalContracts": [],
      "isFixedGasLimit": false
    },
    {
      "hash": "0x417f7d5a13f2b563b2a1953b92362a0d98e2086028f397b57283d949a4cadb02",
      "transactionType": "CALL",
      "contractName": null,
      "contractAddress": "0x1abeb3ac46d9681a6cca2534bf8be8d2c07da7b3",
      "function": "createPot(bytes32,uint256,address[],uint256)",
      "arguments": [
        "0x6f7065726174696f6e7300000000000000000000000000000000000000000000",
        "2000000",
        "[0x8a7E77cB7d380AE79C2aC8c9928Ecfe06eE840AB, 0xe88F1F5B506d4E0122869C888FcB481FCF2476ce]",
        "500000"
      ],
      "transaction": {
        "from": "0x6a3c5627e016dbb9a82235b6ba21d4642f5d296c",
        "to": "0x1abeb3ac46d9681a6cca2534bf8be8d2c07da7b3",
        "gas": "0x31dc3",
        "value": "0x0",
        "input": "0xb64318586f7065726174696f6e730000000000000000000000000000000000000000000000000000000000000000000000000000000000000000000000000000001e84800000000000000000000000000000000000000000000000000000000000000080000000000000000000000000000000000000000000000000000000000007a12000000000000000000000000000000000000000000000000000000000000000020000000000000000000000008a7e77cb7d380ae79c2ac8c9928ecfe06ee840ab000000000000000000000000e88f1f5b506d4e0122869c888fcb481fcf2476ce",
        "nonce": "0x4",
        "chainId": "0x4cef52"
      },
      "additionalContracts": [],
      "isFixedGasLimit": false
    }
  ],
  "receipts": [
    {
      "status": "0x1",
      "cumulativeGasUsed": "0x33342",
      "logs": [],
      "logsBloom": "0x00000000000000000000000000000000000000000000000000000000000000000000000000000000000000000000000000000000000000000000000000000000000000000000000000000000000000000000000000000000000000000000000000000000000000000000000000000000000000000000000000000000000000000000000000000000000000000000000000000000000000000000000000000000000000000000000000000000000000000000000000000000000000000000000000000000000000000000000000000000000000000000000000000000000000000000000000000000000000000000000000000000000000000000000000000000",
      "type": "0x0",
      "transactionHash": "0x4b38a6ee114764663bb8977fc0e17eb52ae1b4ffd2a89e18619db3e154fe6417",
      "transactionIndex": "0x1",
      "blockHash": "0x5882638ada93c6a029e349337baed80e6c2423015f75f49d5aab2f0c45d83708",
      "blockNumber": "0xadaba3",
      "gasUsed": "0x22187",
      "effectiveGasPrice": "0x259692e800",
      "from": "0x6a3c5627e016dbb9a82235b6ba21d4642f5d296c",
      "to": "0x1abeb3ac46d9681a6cca2534bf8be8d2c07da7b3",
      "contractAddress": null
    },
    {
      "status": "0x1",
      "cumulativeGasUsed": "0x554b1",
      "logs": [],
      "logsBloom": "0x00000000000000000000000000000000000000000000000000000000000000000000000000000000000000000000000000000000000000000000000000000000000000000000000000000000000000000000000000000000000000000000000000000000000000000000000000000000000000000000000000000000000000000000000000000000000000000000000000000000000000000000000000000000000000000000000000000000000000000000000000000000000000000000000000000000000000000000000000000000000000000000000000000000000000000000000000000000000000000000000000000000000000000000000000000000",
      "type": "0x0",
      "transactionHash": "0x50da462cd4bc99f3f6d87db0d697711b92595851403c517cb4fe6e44950cc81c",
      "transactionIndex": "0x2",
      "blockHash": "0x5882638ada93c6a029e349337baed80e6c2423015f75f49d5aab2f0c45d83708",
      "blockNumber": "0xadaba3",
      "gasUsed": "0x2216f",
      "effectiveGasPrice": "0x259692e800",
      "from": "0x6a3c5627e016dbb9a82235b6ba21d4642f5d296c",
      "to": "0x1abeb3ac46d9681a6cca2534bf8be8d2c07da7b3",
      "contractAddress": null
    },
    {
      "status": "0x1",
      "cumulativeGasUsed": "0x7762c",
      "logs": [],
      "logsBloom": "0x00000000000000000000000000000000000000000000000000000000000000000000000000000000000000000000000000000000000000000000000000000000000000000000000000000000000000000000000000000000000000000000000000000000000000000000000000000000000000000000000000000000000000000000000000000000000000000000000000000000000000000000000000000000000000000000000000000000000000000000000000000000000000000000000000000000000000000000000000000000000000000000000000000000000000000000000000000000000000000000000000000000000000000000000000000000",
      "type": "0x0",
      "transactionHash": "0x417f7d5a13f2b563b2a1953b92362a0d98e2086028f397b57283d949a4cadb02",
      "transactionIndex": "0x3",
      "blockHash": "0x5882638ada93c6a029e349337baed80e6c2423015f75f49d5aab2f0c45d83708",
      "blockNumber": "0xadaba3",
      "gasUsed": "0x2217b",
      "effectiveGasPrice": "0x259692e800",
      "from": "0x6a3c5627e016dbb9a82235b6ba21d4642f5d296c",
      "to": "0x1abeb3ac46d9681a6cca2534bf8be8d2c07da7b3",
      "contractAddress": null
    }
  ],
  "libraries": [],
  "pending": [],
  "returns": {},
  "timestamp": 1763254721319,
  "chain": 5042002,
  "commit": "c3a476d"
}