{
  "transactions": [
    {
      "hash": "0x7dac42b2745bbe62c6faf35b7666132c280b654902e7bef735b827dbf4ef1331",
      "transactionType": "CALL",
      "contractName": null,
      "contractAddress": "0x1644918d6608127501cb8ee7bcfaca11493f91bb",
      "function": "createPot(bytes32,uint256,address[],uint256)",
      "arguments": [
        "0x656e67696e656572696e67000000000000000000000000000000000000000000",
        "3000000",
        "[0x8a7E77cB7d380AE79C2aC8c9928Ecfe06eE840AB]",
        "500000"
      ],
      "transaction": {
        "from": "0x8a7e77cb7d380ae79c2ac8c9928ecfe06ee840ab",
        "to": "0x1644918d6608127501cb8ee7bcfaca11493f91bb",
        "gas": "0x29cb2",
        "value": "0x0",
        "input": "0xb6431858656e67696e656572696e6700000000000000000000000000000000000000000000000000000000000000000000000000000000000000000000000000002dc6c00000000000000000000000000000000000000000000000000000000000000080000000000000000000000000000000000000000000000000000000000007a12000000000000000000000000000000000000000000000000000000000000000010000000000000000000000008a7e77cb7d380ae79c2ac8c9928ecfe06ee840ab",
        "nonce": "0x31",
        "chainId": "0x4cef52"
      },
      "additionalContracts": [],
      "isFixedGasLimit": false
    },
    {
      "hash": "0xe208a880819003b550dc503c000c4a8913987343bf3da1977637199460b472b2",
      "transactionType": "CALL",
      "contractName": null,
      "contractAddress": "0x1644918d6608127501cb8ee7bcfaca11493f91bb",
      "function": "createPot(bytes32,uint256,address[],uint256)",
      "arguments": [
        "0x6d61726b6574696e670000000000000000000000000000000000000000000000",
        "5000000",
        "[0x8a7E77cB7d380AE79C2aC8c9928Ecfe06eE840AB]",
        "500000"
      ],
      "transaction": {
        "from": "0x8a7e77cb7d380ae79c2ac8c9928ecfe06ee840ab",
        "to": "0x1644918d6608127501cb8ee7bcfaca11493f91bb",
        "gas": "0x29c8f",
        "value": "0x0",
        "input": "0xb64318586d61726b6574696e67000000000000000000000000000000000000000000000000000000000000000000000000000000000000000000000000000000004c4b400000000000000000000000000000000000000000000000000000000000000080000000000000000000000000000000000000000000000000000000000007a12000000000000000000000000000000000000000000000000000000000000000010000000000000000000000008a7e77cb7d380ae79c2ac8c9928ecfe06ee840ab",
        "nonce": "0x32",
        "chainId": "0x4cef52"
      },
      "additionalContracts": [],
      "isFixedGasLimit": false
    },
    {
      "hash": "0x408f03e20da145b11cd5fae121c154bc72b61fea499e31c0c9bb22d5f2db4ba7",
      "transactionType": "CALL",
      "contractName": null,
      "contractAddress": "0x1644918d6608127501cb8ee7bcfaca11493f91bb",
      "function": "createPot(bytes32,uint256,address[],uint256)",
      "arguments": [
        "0x6f7065726174696f6e7300000000000000000000000000000000000000000000",
        "2000000",
        "[0x8a7E77cB7d380AE79C2aC8c9928Ecfe06eE840AB]",
        "500000"
      ],
      "transaction": {
        "from": "0x8a7e77cb7d380ae79c2ac8c9928ecfe06ee840ab",
        "to": "0x1644918d6608127501cb8ee7bcfaca11493f91bb",
        "gas": "0x2777a",
        "value": "0x0",
        "input": "0xb64318586f7065726174696f6e730000000000000000000000000000000000000000000000000000000000000000000000000000000000000000000000000000001e84800000000000000000000000000000000000000000000000000000000000000080000000000000000000000000000000000000000000000000000000000007a12000000000000000000000000000000000000000000000000000000000000000010000000000000000000000008a7e77cb7d380ae79c2ac8c9928ecfe06ee840ab",
        "nonce": "0x33",
        "chainId": "0x4cef52"
      },
      "additionalContracts": [],
      "isFixedGasLimit": false
    },
    {
      "hash": "0xdfaea28c885ee6f18f13b31bd7c3e667fd9e53d7cbe9a239108ee6b55b9109a2",
      "transactionType": "CALL",
      "contractName": null,
      "contractAddress": "0x1644918d6608127501cb8ee7bcfaca11493f91bb",
      "function": "addBeneficiary(bytes32,address)",
      "arguments": [
        "0x656e67696e656572696e67000000000000000000000000000000000000000000",
        "0x8a7E77cB7d380AE79C2aC8c9928Ecfe06eE840AB"
      ],
      "transaction": {
        "from": "0x8a7e77cb7d380ae79c2ac8c9928ecfe06ee840ab",
        "to": "0x1644918d6608127501cb8ee7bcfaca11493f91bb",
        "gas": "0xfcf1",
        "value": "0x0",
        "input": "0x10bd0498656e67696e656572696e670000000000000000000000000000000000000000000000000000000000000000008a7e77cb7d380ae79c2ac8c9928ecfe06ee840ab",
        "nonce": "0x34",
        "chainId": "0x4cef52"
      },
      "additionalContracts": [],
      "isFixedGasLimit": false
    },
    {
      "hash": "0xa877e903324bd9d1406e4442a0852694908638dec39d5cc911c7479fcf708889",
      "transactionType": "CALL",
      "contractName": null,
      "contractAddress": "0x1644918d6608127501cb8ee7bcfaca11493f91bb",
      "function": "addBeneficiary(bytes32,address)",
      "arguments": [
        "0x656e67696e656572696e67000000000000000000000000000000000000000000",
        "0xe88F1F5B506d4E0122869C888FcB481FCF2476ce"
      ],
      "transaction": {
        "from": "0x8a7e77cb7d380ae79c2ac8c9928ecfe06ee840ab",
        "to": "0x1644918d6608127501cb8ee7bcfaca11493f91bb",
        "gas": "0xfcf1",
        "value": "0x0",
        "input": "0x10bd0498656e67696e656572696e67000000000000000000000000000000000000000000000000000000000000000000e88f1f5b506d4e0122869c888fcb481fcf2476ce",
        "nonce": "0x35",
        "chainId": "0x4cef52"
      },
      "additionalContracts": [],
      "isFixedGasLimit": false
    },
    {
      "hash": "0xff16cf007bdd618a68ec68ed1a4d3e498754d3d655978efeb859598e398bd4de",
      "transactionType": "CALL",
      "contractName": null,
      "contractAddress": "0x1644918d6608127501cb8ee7bcfaca11493f91bb",
      "function": "addBeneficiary(bytes32,address)",
      "arguments": [
        "0x656e67696e656572696e67000000000000000000000000000000000000000000",
        "0x5e2787391ecA7099E3eB30DEc7679f1C39D24aC8"
      ],
      "transaction": {
        "from": "0x8a7e77cb7d380ae79c2ac8c9928ecfe06ee840ab",
        "to": "0x1644918d6608127501cb8ee7bcfaca11493f91bb",
        "gas": "0xfcf1",
        "value": "0x0",
        "input": "0x10bd0498656e67696e656572696e670000000000000000000000000000000000000000000000000000000000000000005e2787391eca7099e3eb30dec7679f1c39d24ac8",
        "nonce": "0x36",
        "chainId": "0x4cef52"
      },
      "additionalContracts": [],
      "isFixedGasLimit": false
    },
    {
      "hash": "0x6c7dce8cb32e3e1a2d3720be64a849446c4f98d6f5d806df654a206da0f43ecc",
      "transactionType": "CALL",
      "contractName": null,
      "contractAddress": "0x1644918d6608127501cb8ee7bcfaca11493f91bb",
      "function": "addBeneficiary(bytes32,address)",
      "arguments": [
        "0x6d61726b6574696e670000000000000000000000000000000000000000000000",
        "0x8a7E77cB7d380AE79C2aC8c9928Ecfe06eE840AB"
      ],
      "transaction": {
        "from": "0x8a7e77cb7d380ae79c2ac8c9928ecfe06ee840ab",
        "to": "0x1644918d6608127501cb8ee7bcfaca11493f91bb",
        "gas": "0xfccf",
        "value": "0x0",
        "input": "0x10bd04986d61726b6574696e6700000000000000000000000000000000000000000000000000000000000000000000008a7e77cb7d380ae79c2ac8c9928ecfe06ee840ab",
        "nonce": "0x37",
        "chainId": "0x4cef52"
      },
      "additionalContracts": [],
      "isFixedGasLimit": false
    },
    {
      "hash": "0x01fa38b8a65ef2ae1362d8d590f573e54eb8fb8ebed81f099e56b8a7e09bb5ce",
      "transactionType": "CALL",
      "contractName": null,
      "contractAddress": "0x1644918d6608127501cb8ee7bcfaca11493f91bb",
      "function": "addBeneficiary(bytes32,address)",
      "arguments": [
        "0x6d61726b6574696e670000000000000000000000000000000000000000000000",
        "0xe88F1F5B506d4E0122869C888FcB481FCF2476ce"
      ],
      "transaction": {
        "from": "0x8a7e77cb7d380ae79c2ac8c9928ecfe06ee840ab",
        "to": "0x1644918d6608127501cb8ee7bcfaca11493f91bb",
        "gas": "0xfccf",
        "value": "0x0",
        "input": "0x10bd04986d61726b6574696e670000000000000000000000000000000000000000000000000000000000000000000000e88f1f5b506d4e0122869c888fcb481fcf2476ce",
        "nonce": "0x38",
        "chainId": "0x4cef52"
      },
      "additionalContracts": [],
      "isFixedGasLimit": false
    },
    {
      "hash": "0xaf84d70b9509676b3a3a2412f429fda726fb58ab5a1b6d7473d1c70db7c26b74",
      "transactionType": "CALL",
      "contractName": null,
      "contractAddress": "0x1644918d6608127501cb8ee7bcfaca11493f91bb",
      "function": "addBeneficiary(bytes32,address)",
      "arguments": [
        "0x6d61726b6574696e670000000000000000000000000000000000000000000000",
        "0x5e2787391ecA7099E3eB30DEc7679f1C39D24aC8"
      ],
      "transaction": {
        "from": "0x8a7e77cb7d380ae79c2ac8c9928ecfe06ee840ab",
        "to": "0x1644918d6608127501cb8ee7bcfaca11493f91bb",
        "gas": "0xfccf",
        "value": "0x0",
        "input": "0x10bd04986d61726b6574696e6700000000000000000000000000000000000000000000000000000000000000000000005e2787391eca7099e3eb30dec7679f1c39d24ac8",
        "nonce": "0x39",
        "chainId": "0x4cef52"
      },
      "additionalContracts": [],
      "isFixedGasLimit": false
    },
    {
      "hash": "0x8a7afa97c8754cc6723658360eb3cd033f77eee269ae5a513ac493b607136d6a",
      "transactionType": "CALL",
      "contractName": null,
      "contractAddress": "0x1644918d6608127501cb8ee7bcfaca11493f91bb",
      "function": "addBeneficiary(bytes32,address)",
      "arguments": [
        "0x6f7065726174696f6e7300000000000000000000000000000000000000000000",
        "0x8a7E77cB7d380AE79C2aC8c9928Ecfe06eE840AB"
      ],
      "transaction": {
        "from": "0x8a7e77cb7d380ae79c2ac8c9928ecfe06ee840ab",
        "to": "0x1644918d6608127501cb8ee7bcfaca11493f91bb",
        "gas": "0xfce0",
        "value": "0x0",
        "input": "0x10bd04986f7065726174696f6e73000000000000000000000000000000000000000000000000000000000000000000008a7e77cb7d380ae79c2ac8c9928ecfe06ee840ab",
        "nonce": "0x3a",
        "chainId": "0x4cef52"
      },
      "additionalContracts": [],
      "isFixedGasLimit": false
    },
    {
      "hash": "0x40aa1bb024affa4156525728180e2ed7b66ca98b71327ebb612f44cc513ac0ff",
      "transactionType": "CALL",
      "contractName": null,
      "contractAddress": "0x1644918d6608127501cb8ee7bcfaca11493f91bb",
      "function": "addBeneficiary(bytes32,address)",
      "arguments": [
        "0x6f7065726174696f6e7300000000000000000000000000000000000000000000",
        "0xe88F1F5B506d4E0122869C888FcB481FCF2476ce"
      ],
      "transaction": {
        "from": "0x8a7e77cb7d380ae79c2ac8c9928ecfe06ee840ab",
        "to": "0x1644918d6608127501cb8ee7bcfaca11493f91bb",
        "gas": "0xfce0",
        "value": "0x0",
        "input": "0x10bd04986f7065726174696f6e7300000000000000000000000000000000000000000000000000000000000000000000e88f1f5b506d4e0122869c888fcb481fcf2476ce",
        "nonce": "0x3b",
        "chainId": "0x4cef52"
      },
      "additionalContracts": [],
      "isFixedGasLimit": false
    },
    {
      "hash": "0x6099f9d30fbb3c1c5abd21e782110d377975008eb982ef69584a53a10f3a6e13",
      "transactionType": "CALL",
      "contractName": null,
      "contractAddress": "0x1644918d6608127501cb8ee7bcfaca11493f91bb",
      "function": "addBeneficiary(bytes32,address)",
      "arguments": [
        "0x6f7065726174696f6e7300000000000000000000000000000000000000000000",
        "0x5e2787391ecA7099E3eB30DEc7679f1C39D24aC8"
      ],
      "transaction": {
        "from": "0x8a7e77cb7d380ae79c2ac8c9928ecfe06ee840ab",
        "to": "0x1644918d6608127501cb8ee7bcfaca11493f91bb",
        "gas": "0xfce0",
        "value": "0x0",
        "input": "0x10bd04986f7065726174696f6e73000000000000000000000000000000000000000000000000000000000000000000005e2787391eca7099e3eb30dec7679f1c39d24ac8",
        "nonce": "0x3c",
        "chainId": "0x4cef52"
      },
      "additionalContracts": [],
      "isFixedGasLimit": false
    }
  ],
  "receipts": [
    {
      "status": "0x1",
      "cumulativeGasUsed": "0x7a6d4",
      "logs": [],
      "logsBloom": "0x00000000000000000000000000000000000000000000000000000000000000000000000000000000000000000000000000000000000000000000000000000000000000000000000000000000000000000000000000000000000000000000000000000000000000000000000000000000000000000000000000000000000000000000000000000000000000000000000000000000000000000000000000000000000000000000000000000000000000000000000000000000000000000000000000000000000000000000000000000000000000000000000000000000000000000000000000000000000000000000000000000000000000000000000000000000",
      "type": "0x0",
      "transactionHash": "0x7dac42b2745bbe62c6faf35b7666132c280b654902e7bef735b827dbf4ef1331",
      "transactionIndex": "0x1",
      "blockHash": "0xc27a06af62f6b0ce8f22247630097f06d1cb9a89d2150ca4fbbcc7244ff4cf44",
      "blockNumber": "0xaeb7f4",
      "gasUsed": "0x1c93b",
      "effectiveGasPrice": "0x266ac43200",
      "from": "0x8a7e77cb7d380ae79c2ac8c9928ecfe06ee840ab",
      "to": "0x1644918d6608127501cb8ee7bcfaca11493f91bb",
      "contractAddress": null
    },
    {
      "status": "0x1",
      "cumulativeGasUsed": "0x96ff7",
      "logs": [],
      "logsBloom": "0x00000000000000000000000000000000000000000000000000000000000000000000000000000000000000000000000000000000000000000000000000000000000000000000000000000000000000000000000000000000000000000000000000000000000000000000000000000000000000000000000000000000000000000000000000000000000000000000000000000000000000000000000000000000000000000000000000000000000000000000000000000000000000000000000000000000000000000000000000000000000000000000000000000000000000000000000000000000000000000000000000000000000000000000000000000000",
      "type": "0x0",
      "transactionHash": "0xe208a880819003b550dc503c000c4a8913987343bf3da1977637199460b472b2",
      "transactionIndex": "0x2",
      "blockHash": "0xc27a06af62f6b0ce8f22247630097f06d1cb9a89d2150ca4fbbcc7244ff4cf44",
      "blockNumber": "0xaeb7f4",
      "gasUsed": "0x1c923",
      "effectiveGasPrice": "0x266ac43200",
      "from": "0x8a7e77cb7d380ae79c2ac8c9928ecfe06ee840ab",
      "to": "0x1644918d6608127501cb8ee7bcfaca11493f91bb",
      "contractAddress": null
    },
    {
      "status": "0x1",
      "cumulativeGasUsed": "0xb3926",
      "logs": [],
      "logsBloom": "0x00000000000000000000000000000000000000000000000000000000000000000000000000000000000000000000000000000000000000000000000000000000000000000000000000000000000000000000000000000000000000000000000000000000000000000000000000000000000000000000000000000000000000000000000000000000000000000000000000000000000000000000000000000000000000000000000000000000000000000000000000000000000000000000000000000000000000000000000000000000000000000000000000000000000000000000000000000000000000000000000000000000000000000000000000000000",
      "type": "0x0",
      "transactionHash": "0x408f03e20da145b11cd5fae121c154bc72b61fea499e31c0c9bb22d5f2db4ba7",
      "transactionIndex": "0x3",
      "blockHash": "0xc27a06af62f6b0ce8f22247630097f06d1cb9a89d2150ca4fbbcc7244ff4cf44",
      "blockNumber": "0xaeb7f4",
      "gasUsed": "0x1c92f",
      "effectiveGasPrice": "0x266ac43200",
      "from": "0x8a7e77cb7d380ae79c2ac8c9928ecfe06ee840ab",
      "to": "0x1644918d6608127501cb8ee7bcfaca11493f91bb",
      "contractAddress": null
    },
    {
      "status": "0x1",
      "cumulativeGasUsed": "0xbf046",
      "logs": [],
      "logsBloom": "0x00000000000000000000000000000000000000000000000000000000000000000000000000000000000000000000000000000000000000000000000000000000000000000000000000000000000000000000000000000000000000000000000000000000000000000000000000000000000000000000000000000000000000000000000000000000000000000000000000000000000000000000000000000000000000000000000000000000000000000000000000000000000000000000000000000000000000000000000000000000000000000000000000000000000000000000000000000000000000000000000000000000000000000000000000000000",
      "type": "0x0",
      "transactionHash": "0xdfaea28c885ee6f18f13b31bd7c3e667fd9e53d7cbe9a239108ee6b55b9109a2",
      "transactionIndex": "0x4",
      "blockHash": "0xc27a06af62f6b0ce8f22247630097f06d1cb9a89d2150ca4fbbcc7244ff4cf44",
      "blockNumber": "0xaeb7f4",
      "gasUsed": "0xb720",
      "effectiveGasPrice": "0x266ac43200",
      "from": "0x8a7e77cb7d380ae79c2ac8c9928ecfe06ee840ab",
      "to": "0x1644918d6608127501cb8ee7bcfaca11493f91bb",
      "contractAddress": null
    },
    {
      "status": "0x1",
      "cumulativeGasUsed": "0xca766",
      "logs": [],
      "logsBloom": "0x00000000000000000000000000000000000000000000000000000000000000000000000000000000000000000000000000000000000000000000000000000000000000000000000000000000000000000000000000000000000000000000000000000000000000000000000000000000000000000000000000000000000000000000000000000000000000000000000000000000000000000000000000000000000000000000000000000000000000000000000000000000000000000000000000000000000000000000000000000000000000000000000000000000000000000000000000000000000000000000000000000000000000000000000000000000",
      "type": "0x0",
      "transactionHash": "0xa877e903324bd9d1406e4442a0852694908638dec39d5cc911c7479fcf708889",
      "transactionIndex": "0x5",
      "blockHash": "0xc27a06af62f6b0ce8f22247630097f06d1cb9a89d2150ca4fbbcc7244ff4cf44",
      "blockNumber": "0xaeb7f4",
      "gasUsed": "0xb720",
      "effectiveGasPrice": "0x266ac43200",
      "from": "0x8a7e77cb7d380ae79c2ac8c9928ecfe06ee840ab",
      "to": "0x1644918d6608127501cb8ee7bcfaca11493f91bb",
      "contractAddress": null
    },
    {
      "status": "0x1",
      "cumulativeGasUsed": "0xd5e86",
      "logs": [],
      "logsBloom": "0x00000000000000000000000000000000000000000000000000000000000000000000000000000000000000000000000000000000000000000000000000000000000000000000000000000000000000000000000000000000000000000000000000000000000000000000000000000000000000000000000000000000000000000000000000000000000000000000000000000000000000000000000000000000000000000000000000000000000000000000000000000000000000000000000000000000000000000000000000000000000000000000000000000000000000000000000000000000000000000000000000000000000000000000000000000000",
      "type": "0x0",
      "transactionHash": "0xff16cf007bdd618a68ec68ed1a4d3e498754d3d655978efeb859598e398bd4de",
      "transactionIndex": "0x6",
      "blockHash": "0xc27a06af62f6b0ce8f22247630097f06d1cb9a89d2150ca4fbbcc7244ff4cf44",
      "blockNumber": "0xaeb7f4",
      "gasUsed": "0xb720",
      "effectiveGasPrice": "0x266ac43200",
      "from": "0x8a7e77cb7d380ae79c2ac8c9928ecfe06ee840ab",
      "to": "0x1644918d6608127501cb8ee7bcfaca11493f91bb",
      "contractAddress": null
    },
    {
      "status": "0x1",
      "cumulativeGasUsed": "0xe158e",
      "logs": [],
      "logsBloom": "0x00000000000000000000000000000000000000000000000000000000000000000000000000000000000000000000000000000000000000000000000000000000000000000000000000000000000000000000000000000000000000000000000000000000000000000000000000000000000000000000000000000000000000000000000000000000000000000000000000000000000000000000000000000000000000000000000000000000000000000000000000000000000000000000000000000000000000000000000000000000000000000000000000000000000000000000000000000000000000000000000000000000000000000000000000000000",
      "type": "0x0",
      "transactionHash": "0x6c7dce8cb32e3e1a2d3720be64a849446c4f98d6f5d806df654a206da0f43ecc",
      "transactionIndex": "0x7",
      "blockHash": "0xc27a06af62f6b0ce8f22247630097f06d1cb9a89d2150ca4fbbcc7244ff4cf44",
      "blockNumber": "0xaeb7f4",
      "gasUsed": "0xb708",
      "effectiveGasPrice": "0x266ac43200",
      "from": "0x8a7e77cb7d380ae79c2ac8c9928ecfe06ee840ab",
      "to": "0x1644918d6608127501cb8ee7bcfaca11493f91bb",
      "contractAddress": null
    },
    {
      "status": "0x1",
      "cumulativeGasUsed": "0xecc96",
      "logs": [],
      "logsBloom": "0x00000000000000000000000000000000000000000000000000000000000000000000000000000000000000000000000000000000000000000000000000000000000000000000000000000000000000000000000000000000000000000000000000000000000000000000000000000000000000000000000000000000000000000000000000000000000000000000000000000000000000000000000000000000000000000000000000000000000000000000000000000000000000000000000000000000000000000000000000000000000000000000000000000000000000000000000000000000000000000000000000000000000000000000000000000000",
      "type": "0x0",
      "transactionHash": "0x01fa38b8a65ef2ae1362d8d590f573e54eb8fb8ebed81f099e56b8a7e09bb5ce",
      "transactionIndex": "0x8",
      "blockHash": "0xc27a06af62f6b0ce8f22247630097f06d1cb9a89d2150ca4fbbcc7244ff4cf44",
      "blockNumber": "0xaeb7f4",
      "gasUsed": "0xb708",
      "effectiveGasPrice": "0x266ac43200",
      "from": "0x8a7e77cb7d380ae79c2ac8c9928ecfe06ee840ab",
      "to": "0x1644918d6608127501cb8ee7bcfaca11493f91bb",
      "contractAddress": null
    },
    {
      "status": "0x1",
      "cumulativeGasUsed": "0xf839e",
      "logs": [],
      "logsBloom": "0x00000000000000000000000000000000000000000000000000000000000000000000000000000000000000000000000000000000000000000000000000000000000000000000000000000000000000000000000000000000000000000000000000000000000000000000000000000000000000000000000000000000000000000000000000000000000000000000000000000000000000000000000000000000000000000000000000000000000000000000000000000000000000000000000000000000000000000000000000000000000000000000000000000000000000000000000000000000000000000000000000000000000000000000000000000000",
      "type": "0x0",
      "transactionHash": "0xaf84d70b9509676b3a3a2412f429fda726fb58ab5a1b6d7473d1c70db7c26b74",
      "transactionIndex": "0x9",
      "blockHash": "0xc27a06af62f6b0ce8f22247630097f06d1cb9a89d2150ca4fbbcc7244ff4cf44",
      "blockNumber": "0xaeb7f4",
      "gasUsed": "0xb708",
      "effectiveGasPrice": "0x266ac43200",
      "from": "0x8a7e77cb7d380ae79c2ac8c9928ecfe06ee840ab",
      "to": "0x1644918d6608127501cb8ee7bcfaca11493f91bb",
      "contractAddress": null
    },
    {
      "status": "0x1",
      "cumulativeGasUsed": "0xbcebc",
      "logs": [],
      "logsBloom": "0x00000000000000000000000000000000000000000000000000000000000000000000000000000000000000000000000000000000000000000000000000000000000000000000000000000000000000000000000000000000000000000000000000000000000000000000000000000000000000000000000000000000000000000000000000000000000000000000000000000000000000000000000000000000000000000000000000000000000000000000000000000000000000000000000000000000000000000000000000000000000000000000000000000000000000000000000000000000000000000000000000000000000000000000000000000000",
      "type": "0x0",
      "transactionHash": "0x8a7afa97c8754cc6723658360eb3cd033f77eee269ae5a513ac493b607136d6a",
      "transactionIndex": "0x4",
      "blockHash": "0x287ca1691dec7b2a2a041186b1ac76bb5a2ad720ca852e3166dad06a9262256f",
      "blockNumber": "0xaeb7f5",
      "gasUsed": "0xb714",
      "effectiveGasPrice": "0x266ac43200",
      "from": "0x8a7e77cb7d380ae79c2ac8c9928ecfe06ee840ab",
      "to": "0x1644918d6608127501cb8ee7bcfaca11493f91bb",
      "contractAddress": null
    },
    {
      "status": "0x1",
      "cumulativeGasUsed": "0xc85d0",
      "logs": [],
      "logsBloom": "0x00000000000000000000000000000000000000000000000000000000000000000000000000000000000000000000000000000000000000000000000000000000000000000000000000000000000000000000000000000000000000000000000000000000000000000000000000000000000000000000000000000000000000000000000000000000000000000000000000000000000000000000000000000000000000000000000000000000000000000000000000000000000000000000000000000000000000000000000000000000000000000000000000000000000000000000000000000000000000000000000000000000000000000000000000000000",
      "type": "0x0",
      "transactionHash": "0x40aa1bb024affa4156525728180e2ed7b66ca98b71327ebb612f44cc513ac0ff",
      "transactionIndex": "0x5",
      "blockHash": "0x287ca1691dec7b2a2a041186b1ac76bb5a2ad720ca852e3166dad06a9262256f",
      "blockNumber": "0xaeb7f5",
      "gasUsed": "0xb714",
      "effectiveGasPrice": "0x266ac43200",
      "from": "0x8a7e77cb7d380ae79c2ac8c9928ecfe06ee840ab",
      "to": "0x1644918d6608127501cb8ee7bcfaca11493f91bb",
      "contractAddress": null
    },
    {
      "status": "0x1",
      "cumulativeGasUsed": "0xd3ce4",
      "logs": [],
      "logsBloom": "0x00000000000000000000000000000000000000000000000000000000000000000000000000000000000000000000000000000000000000000000000000000000000000000000000000000000000000000000000000000000000000000000000000000000000000000000000000000000000000000000000000000000000000000000000000000000000000000000000000000000000000000000000000000000000000000000000000000000000000000000000000000000000000000000000000000000000000000000000000000000000000000000000000000000000000000000000000000000000000000000000000000000000000000000000000000000",
      "type": "0x0",
      "transactionHash": "0x6099f9d30fbb3c1c5abd21e782110d377975008eb982ef69584a53a10f3a6e13",
      "transactionIndex": "0x6",
      "blockHash": "0x287ca1691dec7b2a2a041186b1ac76bb5a2ad720ca852e3166dad06a9262256f",
      "blockNumber": "0xaeb7f5",
      "gasUsed": "0xb714",
      "effectiveGasPrice": "0x266ac43200",
      "from": "0x8a7e77cb7d380ae79c2ac8c9928ecfe06ee840ab",
      "to": "0x1644918d6608127501cb8ee7bcfaca11493f91bb",
      "contractAddress": null
    }
  ],
  "libraries": [],
  "pending": [],
  "returns": {},
  "timestamp": 1763289066528,
  "chain": 5042002,
  "commit": "bf025ef"
}