{
  "transactions": [
    {
      "hash": "0x66646851626265b809188fea041c1a9bc01bf2905f5cffac2cb649a53f8b7b26",
      "transactionType": "CALL",
      "contractName": null,
      "contractAddress": "0xeb4d7c6a9ae9ddfa085a11deebc5d25448b34585",
      "function": "createPot(bytes32,uint256,address[],uint256)",
      "arguments": [
        "0x656e67696e656572696e67000000000000000000000000000000000000000000",
        "3000000",
        "[0x8a7E77cB7d380AE79C2aC8c9928Ecfe06eE840AB]",
        "500000"
      ],
      "transaction": {
        "from": "0x8a7e77cb7d380ae79c2ac8c9928ecfe06ee840ab",
        "to": "0xeb4d7c6a9ae9ddfa085a11deebc5d25448b34585",
        "gas": "0x29cb2",
        "value": "0x0",
        "input": "0xb6431858656e67696e656572696e6700000000000000000000000000000000000000000000000000000000000000000000000000000000000000000000000000002dc6c00000000000000000000000000000000000000000000000000000000000000080000000000000000000000000000000000000000000000000000000000007a12000000000000000000000000000000000000000000000000000000000000000010000000000000000000000008a7e77cb7d380ae79c2ac8c9928ecfe06ee840ab",
        "nonce": "0x1e",
        "chainId": "0x4cef52"
      },
      "additionalContracts": [],
      "isFixedGasLimit": false
    },
    {
      "hash": "0xf3d06ef29ffb56f4a8cfc545454876a9039bdf139941925e439e403303b8ae0c",
      "transactionType": "CALL",
      "contractName": null,
      "contractAddress": "0xeb4d7c6a9ae9ddfa085a11deebc5d25448b34585",
      "function": "createPot(bytes32,uint256,address[],uint256)",
      "arguments": [
        "0x6d61726b6574696e670000000000000000000000000000000000000000000000",
        "5000000",
        "[0x8a7E77cB7d380AE79C2aC8c9928Ecfe06eE840AB]",
        "500000"
      ],
      "transaction": {
        "from": "0x8a7e77cb7d380ae79c2ac8c9928ecfe06ee840ab",
        "to": "0xeb4d7c6a9ae9ddfa085a11deebc5d25448b34585",
        "gas": "0x29c8f",
        "value": "0x0",
        "input": "0xb64318586d61726b6574696e67000000000000000000000000000000000000000000000000000000000000000000000000000000000000000000000000000000004c4b400000000000000000000000000000000000000000000000000000000000000080000000000000000000000000000000000000000000000000000000000007a12000000000000000000000000000000000000000000000000000000000000000010000000000000000000000008a7e77cb7d380ae79c2ac8c9928ecfe06ee840ab",
        "nonce": "0x1f",
        "chainId": "0x4cef52"
      },
      "additionalContracts": [],
      "isFixedGasLimit": false
    },
    {
      "hash": "0x9263df7a4c0fad98406dc93248c3da8fa77883bcddbd955e026ae917f7127ac9",
      "transactionType": "CALL",
      "contractName": null,
      "contractAddress": "0xeb4d7c6a9ae9ddfa085a11deebc5d25448b34585",
      "function": "createPot(bytes32,uint256,address[],uint256)",
      "arguments": [
        "0x6f7065726174696f6e7300000000000000000000000000000000000000000000",
        "2000000",
        "[0x8a7E77cB7d380AE79C2aC8c9928Ecfe06eE840AB]",
        "500000"
      ],
      "transaction": {
        "from": "0x8a7e77cb7d380ae79c2ac8c9928ecfe06ee840ab",
        "to": "0xeb4d7c6a9ae9ddfa085a11deebc5d25448b34585",
        "gas": "0x2777a",
        "value": "0x0",
        "input": "0xb64318586f7065726174696f6e730000000000000000000000000000000000000000000000000000000000000000000000000000000000000000000000000000001e84800000000000000000000000000000000000000000000000000000000000000080000000000000000000000000000000000000000000000000000000000007a12000000000000000000000000000000000000000000000000000000000000000010000000000000000000000008a7e77cb7d380ae79c2ac8c9928ecfe06ee840ab",
        "nonce": "0x20",
        "chainId": "0x4cef52"
      },
      "additionalContracts": [],
      "isFixedGasLimit": false
    },
    {
      "hash": "0x026186636caa4e4bda27d396a7b95db2016ee5d1012f816c54543765077c7b4b",
      "transactionType": "CALL",
      "contractName": null,
      "contractAddress": "0xeb4d7c6a9ae9ddfa085a11deebc5d25448b34585",
      "function": "addBeneficiary(bytes32,address)",
      "arguments": [
        "0x656e67696e656572696e67000000000000000000000000000000000000000000",
        "0x8a7E77cB7d380AE79C2aC8c9928Ecfe06eE840AB"
      ],
      "transaction": {
        "from": "0x8a7e77cb7d380ae79c2ac8c9928ecfe06ee840ab",
        "to": "0xeb4d7c6a9ae9ddfa085a11deebc5d25448b34585",
        "gas": "0xfcf1",
        "value": "0x0",
        "input": "0x10bd0498656e67696e656572696e670000000000000000000000000000000000000000000000000000000000000000008a7e77cb7d380ae79c2ac8c9928ecfe06ee840ab",
        "nonce": "0x21",
        "chainId": "0x4cef52"
      },
      "additionalContracts": [],
      "isFixedGasLimit": false
    },
    {
      "hash": "0x217ca71e8864adb2d859c913322e5de73c9d6ac09a48116a17b36420b3186859",
      "transactionType": "CALL",
      "contractName": null,
      "contractAddress": "0xeb4d7c6a9ae9ddfa085a11deebc5d25448b34585",
      "function": "addBeneficiary(bytes32,address)",
      "arguments": [
        "0x656e67696e656572696e67000000000000000000000000000000000000000000",
        "0xe88F1F5B506d4E0122869C888FcB481FCF2476ce"
      ],
      "transaction": {
        "from": "0x8a7e77cb7d380ae79c2ac8c9928ecfe06ee840ab",
        "to": "0xeb4d7c6a9ae9ddfa085a11deebc5d25448b34585",
        "gas": "0xfcf1",
        "value": "0x0",
        "input": "0x10bd0498656e67696e656572696e67000000000000000000000000000000000000000000000000000000000000000000e88f1f5b506d4e0122869c888fcb481fcf2476ce",
        "nonce": "0x22",
        "chainId": "0x4cef52"
      },
      "additionalContracts": [],
      "isFixedGasLimit": false
    },
    {
      "hash": "0x8f97a86aa09f94ef2695ae6a5437f256ab6727b64386ebca1749d0a6135f22f5",
      "transactionType": "CALL",
      "contractName": null,
      "contractAddress": "0xeb4d7c6a9ae9ddfa085a11deebc5d25448b34585",
      "function": "addBeneficiary(bytes32,address)",
      "arguments": [
        "0x656e67696e656572696e67000000000000000000000000000000000000000000",
        "0x5e2787391ecA7099E3eB30DEc7679f1C39D24aC8"
      ],
      "transaction": {
        "from": "0x8a7e77cb7d380ae79c2ac8c9928ecfe06ee840ab",
        "to": "0xeb4d7c6a9ae9ddfa085a11deebc5d25448b34585",
        "gas": "0xfcf1",
        "value": "0x0",
        "input": "0x10bd0498656e67696e656572696e670000000000000000000000000000000000000000000000000000000000000000005e2787391eca7099e3eb30dec7679f1c39d24ac8",
        "nonce": "0x23",
        "chainId": "0x4cef52"
      },
      "additionalContracts": [],
      "isFixedGasLimit": false
    },
    {
      "hash": "0xeb46920adb8f10c137f08d09510e31d5ec02229531a20e15756c5b30e89d96a9",
      "transactionType": "CALL",
      "contractName": null,
      "contractAddress": "0xeb4d7c6a9ae9ddfa085a11deebc5d25448b34585",
      "function": "addBeneficiary(bytes32,address)",
      "arguments": [
        "0x6d61726b6574696e670000000000000000000000000000000000000000000000",
        "0x8a7E77cB7d380AE79C2aC8c9928Ecfe06eE840AB"
      ],
      "transaction": {
        "from": "0x8a7e77cb7d380ae79c2ac8c9928ecfe06ee840ab",
        "to": "0xeb4d7c6a9ae9ddfa085a11deebc5d25448b34585",
        "gas": "0xfccf",
        "value": "0x0",
        "input": "0x10bd04986d61726b6574696e6700000000000000000000000000000000000000000000000000000000000000000000008a7e77cb7d380ae79c2ac8c9928ecfe06ee840ab",
        "nonce": "0x24",
        "chainId": "0x4cef52"
      },
      "additionalContracts": [],
      "isFixedGasLimit": false
    },
    {
      "hash": "0xce98fc8a5a5d46e277209f6d5ad58fd8b7e67a3079d4b3899358393637d9abf4",
      "transactionType": "CALL",
      "contractName": null,
      "contractAddress": "0xeb4d7c6a9ae9ddfa085a11deebc5d25448b34585",
      "function": "addBeneficiary(bytes32,address)",
      "arguments": [
        "0x6d61726b6574696e670000000000000000000000000000000000000000000000",
        "0xe88F1F5B506d4E0122869C888FcB481FCF2476ce"
      ],
      "transaction": {
        "from": "0x8a7e77cb7d380ae79c2ac8c9928ecfe06ee840ab",
        "to": "0xeb4d7c6a9ae9ddfa085a11deebc5d25448b34585",
        "gas": "0xfccf",
        "value": "0x0",
        "input": "0x10bd04986d61726b6574696e670000000000000000000000000000000000000000000000000000000000000000000000e88f1f5b506d4e0122869c888fcb481fcf2476ce",
        "nonce": "0x25",
        "chainId": "0x4cef52"
      },
      "additionalContracts": [],
      "isFixedGasLimit": false
    },
    {
      "hash": "0x445d34dd53498fd7ee44730be58e6e16dcd0bf485d5dccdeabb621cd2195d21e",
      "transactionType": "CALL",
      "contractName": null,
      "contractAddress": "0xeb4d7c6a9ae9ddfa085a11deebc5d25448b34585",
      "function": "addBeneficiary(bytes32,address)",
      "arguments": [
        "0x6d61726b6574696e670000000000000000000000000000000000000000000000",
        "0x5e2787391ecA7099E3eB30DEc7679f1C39D24aC8"
      ],
      "transaction": {
        "from": "0x8a7e77cb7d380ae79c2ac8c9928ecfe06ee840ab",
        "to": "0xeb4d7c6a9ae9ddfa085a11deebc5d25448b34585",
        "gas": "0xfccf",
        "value": "0x0",
        "input": "0x10bd04986d61726b6574696e6700000000000000000000000000000000000000000000000000000000000000000000005e2787391eca7099e3eb30dec7679f1c39d24ac8",
        "nonce": "0x26",
        "chainId": "0x4cef52"
      },
      "additionalContracts": [],
      "isFixedGasLimit": false
    },
    {
      "hash": "0x940712e8d4186eede353584da66cb88524c5e17e7276efbd7ceb057b50089790",
      "transactionType": "CALL",
      "contractName": null,
      "contractAddress": "0xeb4d7c6a9ae9ddfa085a11deebc5d25448b34585",
      "function": "addBeneficiary(bytes32,address)",
      "arguments": [
        "0x6f7065726174696f6e7300000000000000000000000000000000000000000000",
        "0x8a7E77cB7d380AE79C2aC8c9928Ecfe06eE840AB"
      ],
      "transaction": {
        "from": "0x8a7e77cb7d380ae79c2ac8c9928ecfe06ee840ab",
        "to": "0xeb4d7c6a9ae9ddfa085a11deebc5d25448b34585",
        "gas": "0xfce0",
        "value": "0x0",
        "input": "0x10bd04986f7065726174696f6e73000000000000000000000000000000000000000000000000000000000000000000008a7e77cb7d380ae79c2ac8c9928ecfe06ee840ab",
        "nonce": "0x27",
        "chainId": "0x4cef52"
      },
      "additionalContracts": [],
      "isFixedGasLimit": false
    },
    {
      "hash": "0xa56257734ac4909588616a2ce173d8d8745822bb6bfcc16a843126e85943a19d",
      "transactionType": "CALL",
      "contractName": null,
      "contractAddress": "0xeb4d7c6a9ae9ddfa085a11deebc5d25448b34585",
      "function": "addBeneficiary(bytes32,address)",
      "arguments": [
        "0x6f7065726174696f6e7300000000000000000000000000000000000000000000",
        "0xe88F1F5B506d4E0122869C888FcB481FCF2476ce"
      ],
      "transaction": {
        "from": "0x8a7e77cb7d380ae79c2ac8c9928ecfe06ee840ab",
        "to": "0xeb4d7c6a9ae9ddfa085a11deebc5d25448b34585",
        "gas": "0xfce0",
        "value": "0x0",
        "input": "0x10bd04986f7065726174696f6e7300000000000000000000000000000000000000000000000000000000000000000000e88f1f5b506d4e0122869c888fcb481fcf2476ce",
        "nonce": "0x28",
        "chainId": "0x4cef52"
      },
      "additionalContracts": [],
      "isFixedGasLimit": false
    },
    {
      "hash": "0xc230683ecc451ef9327c0f34511b2b53f1350ff15f0dbb17a1b1f424e1b1590a",
      "transactionType": "CALL",
      "contractName": null,
      "contractAddress": "0xeb4d7c6a9ae9ddfa085a11deebc5d25448b34585",
      "function": "addBeneficiary(bytes32,address)",
      "arguments": [
        "0x6f7065726174696f6e7300000000000000000000000000000000000000000000",
        "0x5e2787391ecA7099E3eB30DEc7679f1C39D24aC8"
      ],
      "transaction": {
        "from": "0x8a7e77cb7d380ae79c2ac8c9928ecfe06ee840ab",
        "to": "0xeb4d7c6a9ae9ddfa085a11deebc5d25448b34585",
        "gas": "0xfce0",
        "value": "0x0",
        "input": "0x10bd04986f7065726174696f6e73000000000000000000000000000000000000000000000000000000000000000000005e2787391eca7099e3eb30dec7679f1c39d24ac8",
        "nonce": "0x29",
        "chainId": "0x4cef52"
      },
      "additionalContracts": [],
      "isFixedGasLimit": false
    }
  ],
  "receipts": [
    {
      "status": "0x1",
      "cumulativeGasUsed": "0x9b121",
      "logs": [],
      "logsBloom": "0x00000000000000000000000000000000000000000000000000000000000000000000000000000000000000000000000000000000000000000000000000000000000000000000000000000000000000000000000000000000000000000000000000000000000000000000000000000000000000000000000000000000000000000000000000000000000000000000000000000000000000000000000000000000000000000000000000000000000000000000000000000000000000000000000000000000000000000000000000000000000000000000000000000000000000000000000000000000000000000000000000000000000000000000000000000000",
      "type": "0x0",
      "transactionHash": "0x66646851626265b809188fea041c1a9bc01bf2905f5cffac2cb649a53f8b7b26",
      "transactionIndex": "0x2",
      "blockHash": "0x90ed9a22bffa254f742985082bcad261c0e0129098fc9656e36a9d92456e8f89",
      "blockNumber": "0xae0e01",
      "gasUsed": "0x1c93b",
      "effectiveGasPrice": "0x266ac43200",
      "from": "0x8a7e77cb7d380ae79c2ac8c9928ecfe06ee840ab",
      "to": "0xeb4d7c6a9ae9ddfa085a11deebc5d25448b34585",
      "contractAddress": null
    },
    {
      "status": "0x1",
      "cumulativeGasUsed": "0xb7a44",
      "logs": [],
      "logsBloom": "0x00000000000000000000000000000000000000000000000000000000000000000000000000000000000000000000000000000000000000000000000000000000000000000000000000000000000000000000000000000000000000000000000000000000000000000000000000000000000000000000000000000000000000000000000000000000000000000000000000000000000000000000000000000000000000000000000000000000000000000000000000000000000000000000000000000000000000000000000000000000000000000000000000000000000000000000000000000000000000000000000000000000000000000000000000000000",
      "type": "0x0",
      "transactionHash": "0xf3d06ef29ffb56f4a8cfc545454876a9039bdf139941925e439e403303b8ae0c",
      "transactionIndex": "0x3",
      "blockHash": "0x90ed9a22bffa254f742985082bcad261c0e0129098fc9656e36a9d92456e8f89",
      "blockNumber": "0xae0e01",
      "gasUsed": "0x1c923",
      "effectiveGasPrice": "0x266ac43200",
      "from": "0x8a7e77cb7d380ae79c2ac8c9928ecfe06ee840ab",
      "to": "0xeb4d7c6a9ae9ddfa085a11deebc5d25448b34585",
      "contractAddress": null
    },
    {
      "status": "0x1",
      "cumulativeGasUsed": "0xd4373",
      "logs": [],
      "logsBloom": "0x00000000000000000000000000000000000000000000000000000000000000000000000000000000000000000000000000000000000000000000000000000000000000000000000000000000000000000000000000000000000000000000000000000000000000000000000000000000000000000000000000000000000000000000000000000000000000000000000000000000000000000000000000000000000000000000000000000000000000000000000000000000000000000000000000000000000000000000000000000000000000000000000000000000000000000000000000000000000000000000000000000000000000000000000000000000",
      "type": "0x0",
      "transactionHash": "0x9263df7a4c0fad98406dc93248c3da8fa77883bcddbd955e026ae917f7127ac9",
      "transactionIndex": "0x4",
      "blockHash": "0x90ed9a22bffa254f742985082bcad261c0e0129098fc9656e36a9d92456e8f89",
      "blockNumber": "0xae0e01",
      "gasUsed": "0x1c92f",
      "effectiveGasPrice": "0x266ac43200",
      "from": "0x8a7e77cb7d380ae79c2ac8c9928ecfe06ee840ab",
      "to": "0xeb4d7c6a9ae9ddfa085a11deebc5d25448b34585",
      "contractAddress": null
    },
    {
      "status": "0x1",
      "cumulativeGasUsed": "0xdfa93",
      "logs": [],
      "logsBloom": "0x00000000000000000000000000000000000000000000000000000000000000000000000000000000000000000000000000000000000000000000000000000000000000000000000000000000000000000000000000000000000000000000000000000000000000000000000000000000000000000000000000000000000000000000000000000000000000000000000000000000000000000000000000000000000000000000000000000000000000000000000000000000000000000000000000000000000000000000000000000000000000000000000000000000000000000000000000000000000000000000000000000000000000000000000000000000",
      "type": "0x0",
      "transactionHash": "0x026186636caa4e4bda27d396a7b95db2016ee5d1012f816c54543765077c7b4b",
      "transactionIndex": "0x5",
      "blockHash": "0x90ed9a22bffa254f742985082bcad261c0e0129098fc9656e36a9d92456e8f89",
      "blockNumber": "0xae0e01",
      "gasUsed": "0xb720",
      "effectiveGasPrice": "0x266ac43200",
      "from": "0x8a7e77cb7d380ae79c2ac8c9928ecfe06ee840ab",
      "to": "0xeb4d7c6a9ae9ddfa085a11deebc5d25448b34585",
      "contractAddress": null
    },
    {
      "status": "0x1",
      "cumulativeGasUsed": "0xeb1b3",
      "logs": [],
      "logsBloom": "0x00000000000000000000000000000000000000000000000000000000000000000000000000000000000000000000000000000000000000000000000000000000000000000000000000000000000000000000000000000000000000000000000000000000000000000000000000000000000000000000000000000000000000000000000000000000000000000000000000000000000000000000000000000000000000000000000000000000000000000000000000000000000000000000000000000000000000000000000000000000000000000000000000000000000000000000000000000000000000000000000000000000000000000000000000000000",
      "type": "0x0",
      "transactionHash": "0x217ca71e8864adb2d859c913322e5de73c9d6ac09a48116a17b36420b3186859",
      "transactionIndex": "0x6",
      "blockHash": "0x90ed9a22bffa254f742985082bcad261c0e0129098fc9656e36a9d92456e8f89",
      "blockNumber": "0xae0e01",
      "gasUsed": "0xb720",
      "effectiveGasPrice": "0x266ac43200",
      "from": "0x8a7e77cb7d380ae79c2ac8c9928ecfe06ee840ab",
      "to": "0xeb4d7c6a9ae9ddfa085a11deebc5d25448b34585",
      "contractAddress": null
    },
    {
      "status": "0x1",
      "cumulativeGasUsed": "0xf68d3",
      "logs": [],
      "logsBloom": "0x00000000000000000000000000000000000000000000000000000000000000000000000000000000000000000000000000000000000000000000000000000000000000000000000000000000000000000000000000000000000000000000000000000000000000000000000000000000000000000000000000000000000000000000000000000000000000000000000000000000000000000000000000000000000000000000000000000000000000000000000000000000000000000000000000000000000000000000000000000000000000000000000000000000000000000000000000000000000000000000000000000000000000000000000000000000",
      "type": "0x0",
      "transactionHash": "0x8f97a86aa09f94ef2695ae6a5437f256ab6727b64386ebca1749d0a6135f22f5",
      "transactionIndex": "0x7",
      "blockHash": "0x90ed9a22bffa254f742985082bcad261c0e0129098fc9656e36a9d92456e8f89",
      "blockNumber": "0xae0e01",
      "gasUsed": "0xb720",
      "effectiveGasPrice": "0x266ac43200",
      "from": "0x8a7e77cb7d380ae79c2ac8c9928ecfe06ee840ab",
      "to": "0xeb4d7c6a9ae9ddfa085a11deebc5d25448b34585",
      "contractAddress": null
    },
    {
      "status": "0x1",
      "cumulativeGasUsed": "0x101fdb",
      "logs": [],
      "logsBloom": "0x00000000000000000000000000000000000000000000000000000000000000000000000000000000000000000000000000000000000000000000000000000000000000000000000000000000000000000000000000000000000000000000000000000000000000000000000000000000000000000000000000000000000000000000000000000000000000000000000000000000000000000000000000000000000000000000000000000000000000000000000000000000000000000000000000000000000000000000000000000000000000000000000000000000000000000000000000000000000000000000000000000000000000000000000000000000",
      "type": "0x0",
      "transactionHash": "0xeb46920adb8f10c137f08d09510e31d5ec02229531a20e15756c5b30e89d96a9",
      "transactionIndex": "0x8",
      "blockHash": "0x90ed9a22bffa254f742985082bcad261c0e0129098fc9656e36a9d92456e8f89",
      "blockNumber": "0xae0e01",
      "gasUsed": "0xb708",
      "effectiveGasPrice": "0x266ac43200",
      "from": "0x8a7e77cb7d380ae79c2ac8c9928ecfe06ee840ab",
      "to": "0xeb4d7c6a9ae9ddfa085a11deebc5d25448b34585",
      "contractAddress": null
    },
    {
      "status": "0x1",
      "cumulativeGasUsed": "0x10d6e3",
      "logs": [],
      "logsBloom": "0x00000000000000000000000000000000000000000000000000000000000000000000000000000000000000000000000000000000000000000000000000000000000000000000000000000000000000000000000000000000000000000000000000000000000000000000000000000000000000000000000000000000000000000000000000000000000000000000000000000000000000000000000000000000000000000000000000000000000000000000000000000000000000000000000000000000000000000000000000000000000000000000000000000000000000000000000000000000000000000000000000000000000000000000000000000000",
      "type": "0x0",
      "transactionHash": "0xce98fc8a5a5d46e277209f6d5ad58fd8b7e67a3079d4b3899358393637d9abf4",
      "transactionIndex": "0x9",
      "blockHash": "0x90ed9a22bffa254f742985082bcad261c0e0129098fc9656e36a9d92456e8f89",
      "blockNumber": "0xae0e01",
      "gasUsed": "0xb708",
      "effectiveGasPrice": "0x266ac43200",
      "from": "0x8a7e77cb7d380ae79c2ac8c9928ecfe06ee840ab",
      "to": "0xeb4d7c6a9ae9ddfa085a11deebc5d25448b34585",
      "contractAddress": null
    },
    {
      "status": "0x1",
      "cumulativeGasUsed": "0x81054",
      "logs": [],
      "logsBloom": "0x00000000000000000000000000000000000000000000000000000000000000000000000000000000000000000000000000000000000000000000000000000000000000000000000000000000000000000000000000000000000000000000000000000000000000000000000000000000000000000000000000000000000000000000000000000000000000000000000000000000000000000000000000000000000000000000000000000000000000000000000000000000000000000000000000000000000000000000000000000000000000000000000000000000000000000000000000000000000000000000000000000000000000000000000000000000",
      "type": "0x0",
      "transactionHash": "0x445d34dd53498fd7ee44730be58e6e16dcd0bf485d5dccdeabb621cd2195d21e",
      "transactionIndex": "0x3",
      "blockHash": "0x3643f7c3d7956a99955a60bb70d76a6171c683065b7e7c7ed6677c02038de1ff",
      "blockNumber": "0xae0e03",
      "gasUsed": "0xb708",
      "effectiveGasPrice": "0x266ac43200",
      "from": "0x8a7e77cb7d380ae79c2ac8c9928ecfe06ee840ab",
      "to": "0xeb4d7c6a9ae9ddfa085a11deebc5d25448b34585",
      "contractAddress": null
    },
    {
      "status": "0x1",
      "cumulativeGasUsed": "0x8c768",
      "logs": [],
      "logsBloom": "0x00000000000000000000000000000000000000000000000000000000000000000000000000000000000000000000000000000000000000000000000000000000000000000000000000000000000000000000000000000000000000000000000000000000000000000000000000000000000000000000000000000000000000000000000000000000000000000000000000000000000000000000000000000000000000000000000000000000000000000000000000000000000000000000000000000000000000000000000000000000000000000000000000000000000000000000000000000000000000000000000000000000000000000000000000000000",
      "type": "0x0",
      "transactionHash": "0x940712e8d4186eede353584da66cb88524c5e17e7276efbd7ceb057b50089790",
      "transactionIndex": "0x4",
      "blockHash": "0x3643f7c3d7956a99955a60bb70d76a6171c683065b7e7c7ed6677c02038de1ff",
      "blockNumber": "0xae0e03",
      "gasUsed": "0xb714",
      "effectiveGasPrice": "0x266ac43200",
      "from": "0x8a7e77cb7d380ae79c2ac8c9928ecfe06ee840ab",
      "to": "0xeb4d7c6a9ae9ddfa085a11deebc5d25448b34585",
      "contractAddress": null
    },
    {
      "status": "0x1",
      "cumulativeGasUsed": "0x97e7c",
      "logs": [],
      "logsBloom": "0x00000000000000000000000000000000000000000000000000000000000000000000000000000000000000000000000000000000000000000000000000000000000000000000000000000000000000000000000000000000000000000000000000000000000000000000000000000000000000000000000000000000000000000000000000000000000000000000000000000000000000000000000000000000000000000000000000000000000000000000000000000000000000000000000000000000000000000000000000000000000000000000000000000000000000000000000000000000000000000000000000000000000000000000000000000000",
      "type": "0x0",
      "transactionHash": "0xa56257734ac4909588616a2ce173d8d8745822bb6bfcc16a843126e85943a19d",
      "transactionIndex": "0x5",
      "blockHash": "0x3643f7c3d7956a99955a60bb70d76a6171c683065b7e7c7ed6677c02038de1ff",
      "blockNumber": "0xae0e03",
      "gasUsed": "0xb714",
      "effectiveGasPrice": "0x266ac43200",
      "from": "0x8a7e77cb7d380ae79c2ac8c9928ecfe06ee840ab",
      "to": "0xeb4d7c6a9ae9ddfa085a11deebc5d25448b34585",
      "contractAddress": null
    },
    {
      "status": "0x1",
      "cumulativeGasUsed": "0xa3590",
      "logs": [],
      "logsBloom": "0x00000000000000000000000000000000000000000000000000000000000000000000000000000000000000000000000000000000000000000000000000000000000000000000000000000000000000000000000000000000000000000000000000000000000000000000000000000000000000000000000000000000000000000000000000000000000000000000000000000000000000000000000000000000000000000000000000000000000000000000000000000000000000000000000000000000000000000000000000000000000000000000000000000000000000000000000000000000000000000000000000000000000000000000000000000000",
      "type": "0x0",
      "transactionHash": "0xc230683ecc451ef9327c0f34511b2b53f1350ff15f0dbb17a1b1f424e1b1590a",
      "transactionIndex": "0x6",
      "blockHash": "0x3643f7c3d7956a99955a60bb70d76a6171c683065b7e7c7ed6677c02038de1ff",
      "blockNumber": "0xae0e03",
      "gasUsed": "0xb714",
      "effectiveGasPrice": "0x266ac43200",
      "from": "0x8a7e77cb7d380ae79c2ac8c9928ecfe06ee840ab",
      "to": "0xeb4d7c6a9ae9ddfa085a11deebc5d25448b34585",
      "contractAddress": null
    }
  ],
  "libraries": [],
  "pending": [],
  "returns": {},
  "timestamp": 1763267314357,
  "chain": 5042002,
  "commit": "bf025ef"
}